:100000000C94E6000C940E010C940E010C940E015D
:100010000C940E010C940E010C940E010C940E0124
:100020000C940E010C940E010C940E010C940E0114
:100030000C940E010C940E010C940E010C940E0104
:100040000C94B6120C940E010C94AA110C94841109
:100050000C940E010C940E010C940E010C940E01E4
:100060000C940E010C940E0100407A10F35A00A07B
:10007000724E18090010A5D4E80000E87648170071
:1000800000E40B54020000CA9A3B000000E1F505B1
:10009000000080969800000040420F000000A086FB
:1000A00001000000102700000000E803000000002D
:1000B0006400000000000A000000000001000000D1
:1000C00000002C76D888DC674F0823DFC1DFAE59EB
:1000D000E1B1B796E5E3E453C63AE651997696E87E
:1000E000E6C28426EB898C9B62ED407C6FFCEFBC02
:1000F0009C9F40F2BAA56FA5F490055A2AF75C932D
:100100006B6CF9676DC11BFCE0E40D47FEF520E662
:10011000B500D0ED902E0300943577050080841E45
:10012000080000204E0A000000C80C333333330FA0
:10013000986E12831141EF8D2114893BE65516CF3D
:10014000FEE6DB18D1844B381BF77C1D901DA4BB49
:10015000E424203284725E228100C9F124ECA1E5FE
:100160003D276364696E6F70737578585B0000009B
:100170000000240027002A0001020408102040800B
:1001800001020408102001020408102004040404E1
:100190000404040402020202020203030303030331
:1001A00000000000250028002B00000000002300B4
:1001B00026002900000000080002010000030407D7
:1001C0000000000000000000441EEA1811241FBEB9
:1001D000CFEFD8E0DEBFCDBF14E0A0E0B1E0E2E3B6
:1001E000F4E502C005900D92A43EB107D9F726E0D0
:1001F000A4EEB4E001C01D92AF38B207E1F710E001
:10020000C5EED0E004C02197FE010E94B824C43E90
:10021000D107C9F70E94EE180C940C2A0C94000028
:10022000FC01818D928D0895FC0184899589089542
:100230002AE931E0FC0131832083FB0140895189A7
:1002400062897389FC0142835383648375830895B3
:10025000DC01ED91FC91048CF58DE02D099480E09A
:100260000895FC019485FB018485981303C081E007
:10027000943009F480E0089521E0FC018485843005
:1002800009F420E0822F08950895CF93DF931F9201
:10029000CDB7DEB76983DC01ED91FC910280F3817B
:1002A000E02D41E050E0BE016F5F7F4F09950F9058
:1002B000DF91CF910895DC01ED91FC91068CF78DD3
:1002C000E02D099591E089270895862F089581E012
:1002D0008627089580E090E00895CF93DF93FC0196
:1002E000808D843029F0EF010E943C1584E0888FD6
:1002F000DF91CF910895FC018485843011F00C9436
:10030000191680E00895CF93DF93FC0124852430F3
:10031000D1F0EC010E947B01843181F0882371F0DF
:10032000883161F08C3161F4E881F9810084F185D4
:10033000E02DCE01099521E0892B19F420E001C0C0
:1003400021E0822F01C080E0DF91CF910895EF92EC
:10035000FF921F93CF93DF93FC01208D243011F087
:1003600080E01CC07B01EC0110E0812F0E94191677
:10037000811102C0188F05C08831E1F31F5F14306E
:10038000A1F7888D843061F3FD86EC861A8E198E74
:1003900020E0A70162E00E945E1581E0DF91CF912D
:1003A0001F91FF90EF9008950F931F93CF93DF93CA
:1003B0001F92CDB7DEB78C01DC01ED91FC9100847A
:1003C000F185E02D0995892B51F0BE016F5F7F4FBC
:1003D000F80184850E949D13898190E002C08FEF0F
:1003E0009FEF0F90DF91CF911F910F910895FC0126
:1003F00084850C941C14CF93DF931F92CDB7DEB786
:1004000041E050E0BE016F5F7F4FFC0184850E9498
:100410001C14181619061CF4898190E002C08FEF95
:100420009FEF0F90DF91CF910895FC018485843078
:1004300011F00C94ED1380E090E00895FC0113821C
:10044000128288EE93E0A0E0B0E084839583A683D7
:10045000B78386E191E0918380838AE991E0978771
:100460008687108A118A128A138A84E0808F089501
:10047000AF92BF92CF92DF92EF92FF920F931F93B2
:10048000CF93DF93CDB7DEB7AF970FB6F894DEBF4B
:100490000FBECDBF7C015B016A010AE911E01A833E
:1004A00009831B821C821D821E82CE0109960E9436
:1004B0001E021BA70AA71CA61DA61EA61FA680918A
:1004C0003C0690913D06A0913E06B0913F068EA35A
:1004D0009FA3A8A7B9A78B839C83AD83BE831886EF
:1004E0001F82AE01465D5F4FB501CE0101960E94AD
:1004F000C50A81309105B1F4D701ED91FC910488D2
:10050000F589E02D1DA30CA38CA59DA5AEA5BFA5C7
:100510008EA39FA3A8A7B9A7A601BE016C5D7F4FBC
:10052000C7010995AF960FB6F894DEBF0FBECDBFD9
:10053000DF91CF911F910F91FF90EF90DF90CF90BF
:10054000BF90AF900895AF92BF92CF92DF92EF929B
:10055000FF920F931F93CF93DF93CDB7DEB7AF9783
:100560000FB6F894DEBF0FBECDBF7C015B016A0100
:100570000AE911E01A8309831B821C821D821E82F4
:10058000CE0109960E941E021BA70AA71CA61DA643
:100590001EA61FA680913C0690913D06A0913E06A6
:1005A000B0913F068EA39FA3A8A7B9A78B839C8376
:1005B000AD83BE8318861F82AE01465D5F4FB501D5
:1005C000CE0101960E94C50A81309105B1F4D70190
:1005D000ED91FC910684F785E02D1DA30CA38CA55D
:1005E0009DA5AEA5BFA58EA39FA3A8A7B9A7A60149
:1005F000BE016C5D7F4FC7010995AF960FB6F894A9
:10060000DEBF0FBECDBFDF91CF911F910F91FF9045
:10061000EF90DF90CF90BF90AF9008959B0190E056
:100620000496982F8827642F820F931F0C948213AF
:10063000CF93DF9390E00496982F8827EC01C60FA4
:10064000D71F0E9402138FE00E941C138D2F0E945F
:100650001C138C2F0E941C1380E00E941C13C82FB7
:100660000E9400138C2FDF91CF910895CF93DF93D9
:10067000C82FD62F472F60E170E00E940E034D2F48
:1006800061E170E08C2FDF91CF910C940E0390E02C
:10069000982F882744E050E0845F9B4F0C945313BD
:1006A00044E050E0BC018FE090E00C9453130895B7
:1006B0008CBD9DBD0895DF92EF92FF920F931F9323
:1006C000CF93DF9300D0CDB7DEB7FB01DC015796A7
:1006D0001C921E9256972281211109C0238121115B
:1006E00006C02481211103C025812223E1F0411598
:1006F0005105C9F07A018F01FC01D08CCE01019621
:100700000E94911789819A810E945803B8016E5FF7
:100710007F4F8D2D0E944703B7018D2D0E94360318
:1007200081E090E002C080E090E00F900F90DF91B8
:10073000CF911F910F91FF90EF90DF900895CF928E
:10074000DF92EF92FF920F931F93CF93DF9300D02E
:10075000CDB7DEB7FC01F484F4E0FF1689F18C011B
:10076000CE0101960E94911789819A810E945803B7
:1007700068E070E08F2D0E94AB170E94AA126B01F7
:100780007C01C8010E947B018823B9F061E070E020
:1007900080E090E00E9470120E94AA12DC01CB015E
:1007A0008C199D09AE09BF09883E9340A105B1058A
:1007B00040F3F80184850E943C1584E0F8018487A9
:1007C0000F900F90DF91CF911F910F91FF90EF90BD
:1007D000DF90CF9008956F927F928F929F92AF9209
:1007E000BF92CF92DF92EF92FF921F93CF93DF934E
:1007F00000D0CDB7DEB75C013B016A01FC01148576
:10080000143041F481E090E0F5019383828380E02D
:1008100090E05BC07A014130584018F0E12C88E04C
:10082000F82ECE0101960E94911789819A810E942B
:100830005803812F0E94A1094C0163E070E0812FD1
:100840000E941803873111F08C3121F48E149F041B
:1008500040F302C0E12CF12CCE0101960E949117C9
:1008600089819A810E9458039701A30160E070E09A
:10087000812F0E943C0960E270E0812F0E94AB173B
:1008800062E070E0812F0E94180384FD14C063E0D1
:1008900070E0812F0E941803811104C0812F0E94F3
:1008A0003C15B0CFCE0101960E94911789819A81A3
:1008B0000E945803E5CF40E162E070E0812F0E9482
:1008C0000E03EF2809F49ECFC6010F900F90DF9121
:1008D000CF911F91FF90EF90DF90CF90BF90AF909E
:1008E0009F908F907F906F900895AF92BF92DF920C
:1008F000EF92FF920F931F93CF93DF9300D0CDB76A
:10090000DEB7FC012485243009F076C05A018B0142
:100910007C01D12C8D2D0E941916811103C0F70185
:10092000D48607C08B7F8831D1F3D394F4E0DF12F3
:10093000F1CFF7018485843009F45EC02091000175
:10094000309101012F5F3F4F11F420E030EC3093E4
:10095000010120930001409100015091010120E02C
:1009600061E00E945E15F80182818F3F51F483811E
:100970008F3F99F484818F3F81F485818F3F69F4A3
:1009800038C081110AC0F8018381811106C08481B9
:10099000811103C08581882361F1A114B10449F15B
:1009A000F701D484CE0101960E94911789819A8122
:1009B0000E945803B8016E5F7F4F8D2D0E94470340
:1009C000B5018D2D0E94360364E070E08D2D0E94EC
:1009D000AB17C7010E947B01873189F061E070E0AD
:1009E00080E090E00E947012C7010E947B0181119B
:1009F000F0CF84E0F701848780E090E002C081E0DE
:100A000090E00F900F90DF91CF911F910F91FF9089
:100A1000EF90DF90BF90AF90089582EA91E00E943E
:100A200058178BED91E00E9458178091FD0490912A
:100A3000FE040E945D1786EE91E00E945817809197
:100A4000FF04909100050E945D1782EF91E00E94E3
:100A5000581780910105909102050E945D178CEF57
:100A600091E00E9458178CE392E00E945817609121
:100A7000F9047091FA048091FB049091FC0442E027
:100A80000E947E1686E492E00E9458176091F50459
:100A90007091F6048091F7049091F80442E00E946E
:100AA0007E1663E572E08DE995E00E948C1886E57C
:100AB00092E00C946B164F925F926F927F928F929E
:100AC0009F92AF92BF92CF92DF92EF92FF92CF931D
:100AD000DF9300D000D0CDB7DEB728EE33E0829FA1
:100AE0003001839F700C929F700C112461E083E0B1
:100AF0000E94051260E085E00E94051260E086E039
:100B00000E9405120E94AA120E94DD214B015C0185
:100B1000C12CD12C7601C301770CAA0BBB0B8983A6
:100B20009A83AB83BC8369817A818B819C810E948B
:100B3000DF212B013C01A5019401C701B6010E94F0
:100B400099239B01AC01C301B2010E94A72487FD38
:100B500007C00E94AA120E94DD216B017C01E3CF35
:100B60001092EE041092ED041092EF041092EA0439
:100B70001092EC041092EB041092E9041092E80435
:100B80001092E4041092E5041092E6041092E70437
:100B90000F900F900F900F90DF91CF91FF90EF90FB
:100BA000DF90CF90BF90AF909F908F907F906F908D
:100BB0005F904F9008952F923F924F925F926F9265
:100BC0007F928F929F92AF92BF92CF92DF92EF92DD
:100BD000FF920F931F93CF93DF93CDB7DEB7AB9701
:100BE0000FB6F894DEBF0FBECDBF362FE42EF22E27
:100BF00048EE53E0849F8001859F100D949F100D57
:100C0000112461E0832F0E94051260E08E2D0E9466
:100C1000051260E08F2D0E9405120E94AA120E9408
:100C2000DD214B015C01C12CD12C7601C801110FD3
:100C3000AA0BBB0B88A799A7AAA7BBA7222423941A
:100C4000312C68A579A58AA59BA50E94DF212B01DF
:100C50003C01A5019401C701B6010E9499239B01A3
:100C6000AC01C301B2010E94A72418160CF05DC1AB
:100C700087E00E94DC117C019093F3048093F204DE
:100C800088E00E94DC118C019093F1048093F004C1
:100C9000EF28C9F0892BB9F48091EF04811113C0BA
:100CA0008091ED049091EE04892B69F40E94AA12C0
:100CB0007093EC046093EB0491E09093EF04309216
:100CC000EE042092ED048091EF048823C1F120917D
:100CD000EA048091ED049091EE04211121C081304D
:100CE000910509F01DC161E08DE00E940512A2E0AE
:100CF000B0E0B093EE04A093ED0401301105F9F4D7
:100D0000B1E0B093EA040E94AA127093E9046093E0
:100D1000E80483E090E09093EE048093ED0405C036
:100D20000130110531F4029759F38091EA048823C8
:100D300031F08091ED049091EE04039739F00E9418
:100D4000AA120E94DD216B017C017BCF60E08DE067
:100D50000E9405126091E8047091E9048091EB040F
:100D60009091EC04681B790B072E000C880B990BF3
:100D70000E94DF212FE632E143E85AE30E943E223F
:100D80009B01AC0161ED72E28BE99EE30E940624B7
:100D90006093E4047093E5048093E6049093E70481
:100DA0008AE792E00E9458176091E4047091E5048C
:100DB0008091E6049091E70442E00E947E1663E58C
:100DC00072E08DE995E00E948C181092EF04109269
:100DD000EA041092EE041092ED04C090E404D09066
:100DE000E504E090E604F090E70420E030E0A9019B
:100DF000C701B6010E94A72418160CF08CC020E091
:100E000030E048E452E4C701B6010E94D82187FFD0
:100E100082C04090F9045090FA046090FB047090F6
:100E2000FC04A3019201C701B6010E94D82187FFEB
:100E300003C081E992E01BC0A3019201C701B60182
:100E40000E94A72418168CF42091F5043091F60422
:100E50004091F7045091F804C701B6010E94D821CF
:100E600087FF03C08FEA92E002C08DEC92E00E94FF
:100E70006B168EE496E00E948301882309F45FCF0D
:100E80006091E4047091E5048091E6049091E70498
:100E90001BA21AA21DA21CA21FA21EA28E010F5FDE
:100EA0001F4F22E044E00E94DB1E009771F0FC011E
:100EB00001900020E9F73197AF01481B590BBC01A5
:100EC000CE0182960E9447180CC08AA19BA1009770
:100ED00011F00E9456251BA21AA21FA21EA21DA23B
:100EE0001CA2BE016E5D7F4F88E496E00E94410D1A
:100EF000CE0182960E94721840914C0650914D0688
:100F000060914806709149068EE496E00E94EB03DA
:100F10008AEE92E002C081E093E00E946B160FCF50
:100F20000130110509F00BCFFECEAB960FB6F89449
:100F3000DEBF0FBECDBFDF91CF911F910F91FF900C
:100F4000EF90DF90CF90BF90AF909F908F907F9069
:100F50006F905F904F903F902F90089520E3FC0199
:100F600020833296862F82958F7090E1899F601939
:100F700011246A3014F4605D01C0695C6293682FCB
:100F80008111F0CF08951F93CF93DF9300D0CDB799
:100F9000DEB76CE271E080E090E00E9470121FB753
:100FA000F8948091F404811127C0E6E9F1E084917E
:100FB000E2E8F1E09491E82FF0E0EE0FFF1FE25934
:100FC000FE4FA591B491EC91E92321F461E08AE010
:100FD0000E94051261E08AE00E9434128CB58061A3
:100FE0008CBD8CB580648CBD61E08DE00E943412B4
:100FF00061E08BE00E9434128091F4048F5F809353
:10100000F4041FBF229ACE0101960E949117898194
:101010009A810E94580360E880E090E00E94821369
:1010200065E58BE190E00E94821365E58AE190E03E
:101030000E9482130E94570380E090E490938E05F3
:1010400080938D0580E090E69093960580939505BA
:1010500080E098E49093900580938F0580E098E677
:10106000909398058093970580E090E59093920582
:101070008093910580E090E790939A05809399057D
:1010800080E098E5909394058093930580E098E73D
:1010900090939C0580939B050F900F90DF91CF91CB
:1010A0001F9108951F93CF93DF93CDB7DEB7C4543C
:1010B000D1090FB6F894DEBF0FBECDBFFC0182810F
:1010C0009381A481B58123968CAF9DAFAEAFBFAFA6
:1010D000239711E023961FAF239723964CAD5DAD68
:1010E0006EAD7FAD23974BAB5CAB6DAB7EAB8DA78D
:1010F0009EA7AFA7B8AB18AB4DA55EA56FA578A905
:101100004FA358A769A77AA71EAB4BA95CA96DA9E5
:101110007EA949A35AA36BA37CA32AE931E03C8BA7
:101120002B8B4FEF4D8B4E8B4F8B188E3E872D8721
:101130001AA74FA158A569A57AA54F87588B698B27
:101140007A8B1CA349A15AA16BA17CA149875A871C
:101150006B877C873A8329838B839C83AD83BE8393
:101160000E94C307CE018D5B9F4F0E949117259669
:101170008EAD9FAD25970E94580346E050E062E097
:1011800071E089E090E00E945313CE0103960E9423
:10119000500344E050E0BE01615F7F4F81E090E08A
:1011A0000E94531344E050E0BE016B5E7F4F85E028
:1011B00090E00E9453130E9457031C8789859A85EB
:1011C000AB85BC8580933C0690933D06A0933E067C
:1011D000B0933F06CC5BDF4F0FB6F894DEBF0FBE77
:1011E000CDBFDF91CF911F910895AF92BF92CF9263
:1011F000DF92EF92FF920F931F93CF93DF9300D074
:10120000CDB7DEB77A836983BA01A901E981FA8192
:10121000F770082F10E0000F111F0B561A4FD8015E
:101220008D919C918E0F9F1F9F01240F351F2130A0
:101230003840A0F07A015B0160E078E06B01CE1AE3
:10124000DF0AA601B5010E942313A7014C195D090D
:10125000B5016C0D7D1DF801808191810F900F907B
:10126000DF91CF911F910F91FF90EF90DF90CF9082
:10127000BF90AF900C9423139F92AF92BF92CF92E6
:10128000DF92EF92FF920F931F93CF93DF93982EED
:101290008B015A01690164E270E00E941803E82E94
:1012A000F12C65E270E0892D0E941803FE2CEE24DB
:1012B000E82AE801CE0DDF1D9E013770E92CF12CE4
:1012C000C701880F991FAC0143575A4F7A01FA01A1
:1012D00080819181820F931FA9014C0D5D1D4130CA
:1012E000584090F000E018E0021B130BA801B50174
:1012F0000E945313A601401B510BB501600F711FD3
:10130000F7018081918102C0A601B5010E945313AB
:10131000CC0DDD1D4D2F64E270E0892D0E940E037F
:101320004C2F65E270E0892DDF91CF911F910F91D5
:10133000FF90EF90DF90CF90BF90AF909F900C9474
:101340000E03FF920F931F93CF93DF93F82E00E0CD
:1013500010E08F2D0E940413EC01892B21F08F2DBA
:101360000E9404138C01C017D10799F7CE01DF91B9
:10137000CF911F910F91FF9008957F928F929F922E
:10138000AF92BF92CF92DF92EF92FF920F931F9393
:10139000CF93DF93CDB7DEB7A6970FB6F894DEBF35
:1013A0000FBECDBF8C01762E942E852E20E2B22E5C
:1013B000CE0101967C01FC012B2D11922A95E9F7B3
:1013C0008AE991E09AA389A38FEF8BA38CA38DA3C5
:1013D0008EA3680183E4C80ED11C43E450E0BE0133
:1013E0006F5D7F4FC6010E945B03019609F4B9C08F
:1013F00081E089838A8386E0A82EAB821C82F80173
:1014000064817581868197810E94B1246D837E837A
:101410008F83988789869A8680E890E09C878B875F
:101420004CE150E0B701C6010E943311F7012B2DAA
:1014300011922A95E9F7480188E0880E911CF40181
:10144000D70101900D92AA94E1F740E150E0B70175
:10145000C6010E943311F7011192BA94E9F796E0A0
:10146000A92EB12C40E250E0B701C6010E94331111
:10147000F1E0AF1AB108B1F783E6898392E89A8365
:1014800093E59B838C8385E38D8381E08E837F82CC
:101490009DE3988797E099878A8786E0F401DE01CB
:1014A0001B9601900D928A95E1F78CE0898B8A8BCF
:1014B00064E273E0CE0143960E94C026F801638582
:1014C000CE0149960E94AE07F8016485CE014B9685
:1014D0000E94AE07F8016585CE014D960E94AE07C9
:1014E0004EE150E0B701C6010E943311F3E07F12D4
:1014F0001EC082E3898384E08A83F80196859B83FA
:1015000097859C8390899D8391899E8396E39F8391
:101510008887828D8987838D8A87848D8B87858D47
:101520008C874CE050E0B701C6010E94331187E37D
:10153000898386E08A8391E09B8393E09C838D83FB
:101540008FE08E838AE38F838BE388878FEF898791
:1015500049E050E0B701C6010E943311C6010E9464
:10156000EA10A6960FB6F894DEBF0FBECDBFDF918E
:10157000CF911F910F91FF90EF90DF90CF90BF9090
:10158000AF909F908F907F9008954F925F926F924F
:101590007F928F929F92AF92BF92CF92DF92EF9203
:1015A000FF920F931F93CF93DF93CDB7DEB763976F
:1015B0000FB6F894DEBF0FBECDBF7C015B013A01D0
:1015C000FB0120E080E090E06AE03191332309F1F3
:1015D00040ED430F4A3080F4689FA001699F500D91
:1015E0001124CA01C097830F911D37FD9A958F3F33
:1015F000910559F350F313C03E3289F4233079F04A
:10160000D301A20FB11D12968C932F5F80E090E062
:10161000DCCF233021F4F301858381E021C0F70181
:101620004281538164817581809144069091450681
:10163000A0914606B0914706481759076A077B07ED
:1016400009F495C10E94AA128701085F1F4F6F70AD
:1016500077277C5FC8010E94A701813019F080E0E4
:1016600090E0F8C18AE991E09A838983F701828149
:101670009381A481B5818B839C83AD83BE8345E335
:1016800050E0BE016F5F7F4FC8010E945B03892B52
:1016900019F4C12CD12C66C10E94AA12F7017783DC
:1016A00066837627672776277A83698342E050E04E
:1016B000BE016F5F7F4FC8010E94331181E090E04F
:1016C0009E878D8742E050E0BE01635F7F4FC80177
:1016D0000E94331180E091E09E878D8742E050E0C8
:1016E000BE01635F7F4FC8010E9433111E861D86B5
:1016F00042E050E0BE01635F7F4FC8010E9433119A
:1017000042E050E0BE01635F7F4FC8010E94331189
:1017100042E050E0BE01635F7F4FC8010E94331179
:101720004501F5018081882301F164015601F6012C
:1017300081912F01882321F08E3211F06201F6CFC2
:10174000C818D9081C141D0474F4CF8641E050E079
:10175000BE01615F7F4FC8010E943311A601B40131
:10176000C8010E9433114201DCCF1F8641E050E0E6
:10177000BE01615F7F4FC8010E943311C12CDD247F
:10178000D394DE86CD8642E050E0BE01635F7F4F9A
:10179000C8010E943311DE86CD8642E050E0BE01D2
:1017A000635F7F4FC8010E943311C8010E94EA1095
:1017B000892B09F46ECFE3E0AE2EB12C230122E099
:1017C000420E511C0E94AA123B014C01C8010E940A
:1017D000E21418161906A4F00E94AA12DC01CB012B
:1017E00086199709A809B90989389341A105B10556
:1017F000D0F462E370E080E090E00E947012E6CFE7
:10180000F7014281538164817581808D918DA28D14
:10181000B38D481759076A077B0749F4848D958D66
:10182000C59729F409C0CC24CA94DC2C92C05EEF81
:10183000C52EDD24DA948DC0F70181A192A10C9709
:101840000CF49DC04CE050E0BE016F5F7F4FC801BB
:101850000E949A148B819C819827892798279A8BBC
:10186000898B29813A81322723273227F701468144
:1018700057812417350709F07DC097FF7BC08F7013
:101880009270892B09F0E1C06F80788476246724F8
:1018900076246114710409F4D3C0C12CD12C8D813C
:1018A0009E81982789279827C816D90608F46CC006
:1018B000812C912C41E050E0BE016D5E7F4FC8014C
:1018C0000E949A148B89982F907C09F08FC0811107
:1018D00083C042E050E0BE01615F7F4FC8010E94BB
:1018E0009A1442E050E0BE01635F7F4FC8010E943E
:1018F0009A14C8010E94B914C8010E94B914C80101
:101900000E94B914C8010E94B91442E050E0BE011F
:101910006F5E7F4FC8010E949A148F859889811548
:10192000914009F06BC0CD84DE84DC24CD24DC241E
:1019300081E0C816D10409F061C089899A898115AE
:10194000944009F078C044E050E0B201C8010E9420
:101950009A1481E0A81AB10829F0FFEFCF16DF062C
:1019600009F430CFC8010E946D01C60173C08EEF2B
:101970009FEF70C04CEFC42EDD24DA94EACF9DEFC8
:10198000C92EDD24DA94E5CF41E050E0BE01635F6B
:101990007F4FC8010E949A148D85882351F08D8550
:1019A0009FEF980F9D87882321F0C8010E94B914EA
:1019B000F6CF8D858111E8CFC8010E94B914C80106
:1019C0000E94B914C8010E94B914C8010E94B91438
:1019D000FFEFCF1ADF0A63CF8B899FEF980F9B8BA6
:1019E000882341F0C8010E94B914F6CFC8010E94B3
:1019F000B9141B8A8B8981115DCF6BCFC12CD12C7F
:101A000089899A89982789279827C816D90638F48A
:101A1000C8010E94B914FFEFCF1ADF0AF1CF2FEFF0
:101A2000821A920A6814790409F044CF26EFC22E74
:101A3000DD24DA948ECF77EFC72EDD24DA9489CFB8
:101A40003AEFC32EDD24DA9484CF8BEFC82EDD2449
:101A5000DA947FCF63960FB6F894DEBF0FBECDBF8A
:101A6000DF91CF911F910F91FF90EF90DF90CF907A
:101A7000BF90AF909F908F907F906F905F904F90AE
:101A800008950F931F93CF93DF938C01EB01FC011B
:101A9000808191810097B1F068817981611571052C
:101AA00079F0428153812C813D814217530740F0E8
:101AB0000E94C0268C819D81F8019583848313C088
:101AC0000E94562588819981F801918380838A81BB
:101AD0009B81938382838C819D81958384831982EA
:101AE00018821B821A821D821C82DF91CF911F9166
:101AF0000F9108952F923F924F925F926F927F9233
:101B00008F929F92AF92BF92CF92DF92EF92FF920D
:101B10000F931F93CF93DF93CDB7DEB7E2970FB646
:101B2000F894DEBF0FBECDBF7C012A013B016901E5
:101B30000E94AA124B015C0187010D5B1F4FC80177
:101B40000E94E21418161906A4F00E94AA12DC01E1
:101B5000CB0188199909AA09BB09481659066A06D2
:101B60007B06D8F062E370E080E090E00E947012A3
:101B7000E6CF42E250E0BE016F5F7F4FC8010E9496
:101B80009A148981823011F080E060C1F801848963
:101B9000958983349105C1F702C08FEF57C16D81DC
:101BA0007E818F8198850E94B1244B015C01F601F2
:101BB000608371838283938346E050E0B701685F5E
:101BC0007F4FCE014D960E94AA26892BE9F6F70198
:101BD00080819181A281B38188169906AA06BB06ED
:101BE00098F284819581A681B78188159905AA0507
:101BF000BB0550F289899A89AB89BC89868797870A
:101C0000A08BB18B8EECC82ED12CC8010E94B914C8
:101C1000F1E0CF1AD108C9F7712CC70182969AA7B3
:101C200089A7F701B696FCA7EBA708969EA78DA7F4
:101C30003C974F01899698AB8FA73897FAABE9ABE1
:101C40001701F6E12F0E311C27018EE1480E511CC1
:101C5000F801818D928D181619060CF0F6C0C80196
:101C60000E94B9148333910509F4C9C0F4F481309A
:101C70009105B9F11CF4892B59F3DBC08330910530
:101C8000C1F1069709F0D5C0C8010E94B9146C01D2
:101C900044E050E0B201C8010E949A14A12CB12C7A
:101CA000DD2494E0C91AD1083FC08A33910509F4B4
:101CB0007AC03CF48533910561F0C69709F43FC0C2
:101CC000B8C08B33910509F484C08F3F910501F2B0
:101CD000B0C0C8010E94B914C8010E94B914782E7E
:101CE000B7CFC8010E94B91444E050E069A97AA9AD
:101CF0003AC0C8010E94B9146C0144E050E0B1013F
:101D0000C8010E949A14A12CB12CDD24F4E0CF1A52
:101D1000D108AC14BD040CF09BCFC8010E94B914CB
:101D20008FEFA81AB80AF5CFAC14BD040CF090CF11
:101D3000C8010E94B914EFEFAE1ABE0AF5CFC80170
:101D40000E94B914682EF701828D811110C0838D15
:101D500081110DC0848D81110AC0858D811107C04C
:101D600044E050E0B401C8010E949A1471CFEFA57D
:101D7000F8A9A080B180C280D380B401CE0183963F
:101D80000E9478118DA19EA1AFA1B8A5A816B90691
:101D9000CA06DB0629F3662009F45ACFC8010E945F
:101DA000B9146A94F8CFC8010E94B91444E050E015
:101DB0006BA57CA5C8010E949A14F70166A177A1C2
:101DC00080A591A50E94B12466A377A380A791A7BF
:101DD0003FCFC8010E94B91444E050E06DA57EA534
:101DE000C8010E949A14F70162A573A584A595A560
:101DF0000E94B12462A773A784A795A729CFC80121
:101E00000E94B91444E050E069A57AA5C8010E9477
:101E10009A14F70162A173A184A195A10E94B12433
:101E200062A373A384A395A366A777A780AB91ABA6
:101E30000FCFC8010E94B914D82EDD2009F408CFB5
:101E4000C8010E94B914DA94F8CF872DE2960FB634
:101E5000F894DEBF0FBECDBFDF91CF911F910F91E0
:101E6000FF90EF90DF90CF90BF90AF909F908F90BA
:101E70007F906F905F904F903F902F9008958F923A
:101E80009F92AF92BF92CF92DF92EF92FF920F9309
:101E90001F93CF93DF937C01EB016C0182E0C80EAE
:101EA000D11C4701E5E08E0E911C00E010E0F60128
:101EB00041916F0150E060E070E02AE0CE010E94A5
:101EC000A1185C01E881F9810190F081E02D6EE2BA
:101ED000CE0109958A0D9B1D080F191F8C149D04B6
:101EE00031F7F701458150E060E070E02AE0CE0173
:101EF0000E94A118800F911FDF91CF911F910F9128
:101F0000FF90EF90DF90CF90BF90AF909F908F9019
:101F10000895FC01538D448D252F30E0842F90E0EF
:101F2000821B930B541710F0CF96089501970895D4
:101F3000FC01918D828D981761F0828DDF01A80FD1
:101F4000B11D5D968C91928D9F5F9F73928F90E0F3
:101F500008958FEF9FEF0895FC01918D828D981762
:101F600031F0828DE80FF11D858D90E008958FEF9F
:101F70009FEF0895FC01918D228D892F90E0805C68
:101F80009F4F821B91098F73992708958DE995E0E2
:101F90000E94BA0F21E0892B09F420E0822F0895D6
:101FA000FC01848DDF01A80FB11DA35ABF4F2C91F6
:101FB000848D90E001968F739927848FA689B789C5
:101FC0002C93A089B1898C91837080648C93938DBC
:101FD000848D981306C00288F389E02D80818F7D5F
:101FE00080830895EF92FF920F931F93CF93DF9317
:101FF000EC0181E0888F9B8D8C8D981305C0E8895A
:10200000F989808185FD26C0F62E0B8D10E00F5FCB
:102010001F4F0F731127E02E8C8DE8120CC00FB6E6
:1020200007FCFACFE889F989808185FFF5CFCE01D9
:102030000E94D00FF1CF8B8DFE01E80FF11DE35A06
:10204000FF4FF0829FB7F8940B8FEA89FB8980815C
:1020500080620AC09FB7F894EE89FF896083E8899F
:10206000F98980818370806480839FBF81E090E0E4
:10207000DF91CF911F910F91FF90EF900895CF9333
:10208000DF93EC01888D8823C9F0EA89FB89808180
:1020900085FD05C0A889B9898C9186FD0FC00FB652
:1020A00007FCF5CF808185FFF2CFA889B9898C9193
:1020B00085FFEDCFCE010E94D00FE7CFDF91CF910A
:1020C000089580E090E0892B29F00E94C60F8111CD
:1020D0000C9400000895833081F028F4813099F049
:1020E0008230A1F008958730A9F08830B9F08430AB
:1020F000D1F4809180008F7D03C0809180008F7724
:1021000080938000089584B58F7702C084B58F7D59
:1021100084BD08958091B0008F7703C08091B00096
:102120008F7D8093B00008953FB7F8948091890522
:1021300090918A05A0918B05B0918C0526B5A89B3E
:1021400005C02F3F19F00196A11DB11D3FBFBA2F49
:10215000A92F982F8827820F911DA11DB11DBC01A9
:10216000CD0142E0660F771F881F991F4A95D1F76E
:1021700008950895CF93DF931F92CDB7DEB769839B
:10218000DC01ED91FC910280F381E02D41E050E013
:10219000BE016F5F7F4F09950F90DF91CF9108953A
:1021A0000E94A5261F93CF93DF93182F66E270E05D
:1021B0000E941803C82FD0E067E270E0812F0E94D0
:1021C0001803DC2FCC279E01282BC901DF91CF916A
:1021D0001F9108951F93CF93DF9300D0CDB7DEB743
:1021E000FC01108DCE0101960E94911789819A8180
:1021F0000E94580360E270E0812F0E94AB1762E0FA
:1022000070E0812F0E94180384FD1DC062E070E021
:10221000812F0E94180383FF0BC048E162E070E049
:10222000812F0E940E030E94570380E090E015C0AA
:102230000E945703CE0101960E94911789819A81CD
:102240000E945803DCCF40E162E070E0812F0E94E1
:102250000E030E94570381E090E00F900F90DF91F2
:10226000CF911F9108958F929F92AF92BF92DF926C
:10227000EF92FF920F931F93CF93DF9300D0CDB7D0
:10228000DEB77C014B018A01FC01A688B788D08C9F
:10229000CE0101960E94911789819A810E9458036C
:1022A0008D2D0E94A1098017910720F48D2D0E9489
:1022B000A1098C019801A401B5018D2D0E943C0952
:1022C0000E945703F70186899789800F911F978B8A
:1022D000868BC8010F900F90DF91CF911F910F91C6
:1022E000FF90EF90DF90BF90AF909F908F900895F8
:1022F000DC018AE991E08D939D9384E0FB010190DC
:102300000D928A95E1F708951F920F920FB60F92E2
:1023100011242F933F934F935F936F937F938F93EA
:102320009F93AF93BF93EF93FF938DE995E00E9446
:10233000D00FFF91EF91BF91AF919F918F917F91BE
:102340006F915F914F913F912F910F900FBE0F9022
:102350001F9018951F920F920FB60F9211242F9372
:102360008F939F93EF93FF93E091AD05F091AE05AE
:102370008081E091B305F091B40582FD12C0908197
:102380008091B6058F5F8F732091B705821751F04A
:10239000E091B605F0E0E356FA4F958F8093B605CD
:1023A00001C08081FF91EF919F918F912F910F90AC
:1023B0000FBE0F901F901895CF93DF93282F30E01A
:1023C000F901EC54FE4F8491F901E858FE4FD49185
:1023D000F901E457FE4FC491CC2391F081110E9482
:1023E0006B10EC2FF0E0EE0FFF1FE655FE4FA591AE
:1023F000B491EC91ED2381E090E021F480E002C003
:1024000080E090E0DF91CF9108951F93CF93DF9309
:10241000282F30E0F901EC54FE4F8491F901E8587F
:10242000FE4FD491F901E457FE4FC491CC23C1F083
:10243000162F81110E946B10EC2FF0E0EE0FFF1FA2
:10244000E056FE4FA591B4919FB7F894111104C0C6
:102450008C91D095D82302C0EC91DE2BDC939FBFEA
:10246000DF91CF911F910895CF93DF9390E0FC010E
:10247000E858FE4F2491FC01E457FE4F84918823D5
:1024800061F190E0880F991FFC01E259FE4FC59160
:10249000D491FC01E056FE4FA591B491611109C0A1
:1024A0009FB7F8948881209582238883EC912E230E
:1024B0000BC0623061F49FB7F8948881322F309559
:1024C00083238883EC912E2B2C939FBF06C08FB75C
:1024D000F894E8812E2B28838FBFDF91CF91089548
:1024E0008F929F92AF92BF92CF92DF92EF92FF9224
:1024F0006B017C010E9494104B015C01C114D1045A
:10250000E104F104F1F00E949410DC01CB01881980
:102510009909AA09BB09883E9340A105B10570F34A
:1025200021E0C21AD108E108F10888EE880E83E0A4
:10253000981EA11CB11CC114D104E104F10419F7C7
:10254000DDCFFF90EF90DF90CF90BF90AF909F9046
:102550008F9008952FB7F894609185057091860546
:1025600080918705909188052FBF08951F920F9243
:102570000FB60F9211242F933F938F939F93AF9396
:10258000BF938091850590918605A0918705B091B4
:1025900088053091840523E0230F2D3720F4019620
:1025A000A11DB11D05C026E8230F0296A11DB11D76
:1025B000209384058093850590938605A0938705D5
:1025C000B09388058091890590918A05A0918B052B
:1025D000B0918C050196A11DB11D80938905909342
:1025E0008A05A0938B05B0938C05BF91AF919F9105
:1025F0008F913F912F910F900FBE0F901F901895C4
:102600002A9A08952A9808951F93CF93DF93182F3D
:1026100060E270E00E941803C82FD0E061E270E031
:10262000812F0E941803DC2FCC279E01282BC90183
:10263000DF91CF911F9108958EBD00000DB407FE6C
:10264000FDCF8EB50895CF92DF92EF92FF920F9358
:102650001F93CF93DF93EC017A018B016C01C40EC1
:10266000D51ECC15DD05A9F00E9402138FE00E9453
:102670001C138D2F0E941C138C2F0E941C1321965B
:1026800080E00E941C13F80181938F010E940013C7
:10269000E8CFC701DF91CF911F910F91FF90EF908D
:1026A000DF90CF900895CF92DF92EF92FF920F9339
:1026B0001F93CF93DF93EC017A018B016C01C40E61
:1026C000D51ECC15DD05A1F00E94021380EF0E94FB
:1026D0001C138D2F0E941C138C2F0E941C132196FB
:1026E000F80181918F010E941C130E940013E9CF11
:1026F000C701DF91CF911F910F91FF90EF90DF9075
:10270000CF9008951F93CF93DF93D82F192FC62F03
:102710000E94021380EF0E941C13812F0E941C1341
:102720008D2F0E941C138C2F0E941C130E940013DB
:1027300081E0DF91CF911F910895CF92DF92FF92B8
:102740000F931F93CF93DF9300D0CDB7DEB7F82E52
:102750006B01CE0101960E94911789819A810E9496
:10276000580368E270E08F2D0E941803082F10E0D4
:1027700069E270E08F2D0E941803702F6627682B86
:1027800021E030E0A6018F2D0E94F5080E9457033A
:1027900081E090E00F900F90DF91CF911F910F910A
:1027A000FF90DF90CF900895CF93DF931F92CDB726
:1027B000DEB7FC01218D328D232B49F0BE016F5F06
:1027C0007F4F808D0E949D13898190E002C08FEF22
:1027D0009FEF0F90DF91CF910895DF92EF92FF92DC
:1027E0000F931F93CF93DF9300D0CDB7DEB7D82ED2
:1027F000CE0101960E94911789819A810E94580307
:10280000E12CF12C8D2D0E94D2108C01892B21F00E
:102810008D2D0E94D2107C010E151F0599F70E9484
:102820005703C8010F900F90DF91CF911F910F9127
:10283000FF90EF90DF9008958F929F92BF92CF927A
:10284000DF92EF92FF920F931F93CF93DF9300D00D
:10285000CDB7DEB7B82E6B017A01CE0101960E948A
:10286000911789819A810E945803812C912C8B2D7C
:102870000E94D2108C01892B21F08B2D0E94D21046
:102880004C010815190599F70115110599F463E034
:1028900070E08B2D0E9418038431D9F18823C9F18F
:1028A00001E010E08C3111F400E010E01195019589
:1028B00011092FC0E016F1060CF48701101611065D
:1028C00044F568E270E08B2D0E941803E82EF12C8D
:1028D00069E270E08B2D0E941803FE2CEE24E82A9A
:1028E0009801A601B7018B2D0E94F508E00EF11E9C
:1028F0004F2D68E270E08B2D0E940E034E2D69E291
:1029000070E08B2D0E940E0360E470E08B2D0E941E
:10291000AB170E945703C8010F900F90DF91CF9122
:102920001F910F91FF90EF90DF90CF90BF909F90FD
:102930008F900895CF93DF93FC01218D328D211567
:10294000310519F48FEF9FEF11C0EC0142175307C7
:1029500008F0A901888D0E941C141816190694F716
:10296000298D3A8D281B390B3A8F298FDF91CF9112
:1029700008950F931F93CF93DF931F92CDB7DEB7C8
:10298000FC01218D328D232B61F08C0141E050E060
:10299000BE016F5F7F4F808D0E941C1418161906B0
:1029A0001CF08FEF9FEF08C0F801818D928D019789
:1029B000928F818F898190E00F90DF91CF911F914D
:1029C0000F9108950F931F93CF93DF93CDB7DEB789
:1029D00028970FB6F894DEBF0FBECDBF8C01D8018B
:1029E00059968D919C915A97892B41F0ED91FC91CC
:1029F0000284F385E02DC8010995F1CFF801808D9F
:102A00000E94ED131816190654F548E050E0BE0177
:102A10006F5F7F4FD80158968C910E941C14181636
:102A20001906FCF4D801509684E0FE01319601901D
:102A30000D928A95E1F78D8190E0982F88272E815D
:102A4000820F911DF801958B848B8F8190E0982FD8
:102A500088272885820F911D928F818F02C080E088
:102A600090E028960FB6F894DEBF0FBECDBFDF9181
:102A7000CF911F910F9108951F93CF93DF9300D0B3
:102A8000CDB7DEB7182FCE0101960E94911789812C
:102A90009A810E94580360E170E0812F0E94AB1779
:102AA0004FEF62E070E0812F0E940E030E945703F7
:102AB0000F900F90DF91CF911F910895DF92EF92C9
:102AC000FF920F931F93CF93DF9300D0CDB7DEB764
:102AD000182FD62E7A01022F0E943C15CE010196A6
:102AE0000E94911789819A810E9458034D2D402B95
:102AF00060E070E0812F0E940E03E114F10459F4AC
:102B0000E0908205F09083058FEFE81AF80AF092C2
:102B10008305E09282054F2D64E070E0812F0E94D2
:102B20000E034E2D65E070E0812F0E940E0361E0E0
:102B300070E0812F0E94AB170E94570381E00F9035
:102B40000F90DF91CF911F910F91FF90EF90DF9049
:102B50000895BF92CF92DF92EF92FF920F931F934F
:102B6000CF93DF9300D000D000D0CDB7DEB7FC010B
:102B7000208D243009F04CC06A017B018C01B12CFE
:102B800063E070E08B2D0E941803811103C0F801EF
:102B9000B08E06C08831D9F3B394F4E0BF12F0CF01
:102BA000F801808D8430A1F196E0EAE3F1E0DE01E6
:102BB000119601900D929A95E1F7F70193819F7715
:102BC0009C8394819D8395819E83B7016E5F7F4F27
:102BD0000E944703B601F801808D0E943603F80178
:102BE000808D90E0982F882746E050E0BE016F5F0F
:102BF0007F4F8A5F9B4F0E945313F801128E118EF4
:102C000020E8A60162E0808D0E945E1581E001C08F
:102C100080E026960FB6F894DEBF0FBECDBFDF91E1
:102C2000CF911F910F91FF90EF90DF90CF90BF90C9
:102C300008951F93CF93DF9300D0CDB7DEB7182F41
:102C4000CE0101960E94911789819A810E945803B2
:102C500063E070E0812F0E941803182F0E94570331
:102C6000812F0F900F90DF91CF911F9108950F93B7
:102C70001F930E94AA126093560670935706809382
:102C80005806909359068EE496E00E94FB0197FF48
:102C90001FC00E94AA12009156061091570620915B
:102CA000580630915906DC01CB01801B910BA20B19
:102CB000B30B0091520610915306209154063091A7
:102CC000550680179107A207B307E8F28FEF9FEF31
:102CD0001F910F910895CF93DF93BC018DE995E08B
:102CE0000E948C18EC0163E572E08DE995E00E948A
:102CF0008C188C0F9D1FDF91CF9108958F929F921A
:102D0000AF92BF92CF92DF92EF92FF920F931F93F9
:102D1000CF93DF936B017C01142F9B01AC010E94C8
:102D2000AC24882319F067ED74E027C046015701F1
:102D3000E894B7F82FEF3FEF4FE75FE7C501B40125
:102D40000E94AC2481110DC02FEF3FEF4FE75FE7EA
:102D5000C501B4010E94D82118161CF46BED74E073
:102D60000CC02FEF3FEF4FE75FE4C701B6010E94B1
:102D7000A724181694F46FED74E08DE995E0DF91C7
:102D8000CF911F910F91FF90EF90DF90CF90BF9068
:102D9000AF909F908F900C948C182FEF3FEF4FE7E0
:102DA0005FECC701B6010E94D82187FDE4CF20E087
:102DB00030E0A901C701B6010E94D82187FF0BC0EE
:102DC0006DE28DE995E00E94F20FEC01F7FAF094C4
:102DD000F7F8F09402C0C0E0D0E000E060E070E0FE
:102DE00080E09FE3101741F020E030E040E251E442
:102DF0000E9406240F5FF6CFA70196010E949A2336
:102E00006B017C010E9478244B015C012AE0AB013C
:102E1000BC018DE995E00E94A118C80FD91F1123AC
:102E2000C9F1C501B4010E94DD219B01AC01C701BC
:102E3000B6010E9499236B017C016EE28DE995E059
:102E40000E94F20FC80FD91F20E030E040E251E4A9
:102E5000C701B6010E943E224B015C010E9478240A
:102E60006B01E12CF12C2AE0B701A6018DE995E078
:102E70000E94A118C80FD91FC701B6010E94DD2109
:102E80009B01AC01C501B4010E9499236B017C0137
:102E90001150D1F6CE01DF91CF911F910F91FF908C
:102EA000EF90DF90CF90BF90AF909F908F9008955C
:102EB000BC018DE995E00C948C18CF92DF92EF92D3
:102EC000FF92CF93DF936C01990FEE08FF08F7FE96
:102ED0001BC06DE28DE995E00E94F20FEC014427E2
:102EE0005527BA014C195D096E097F092AE08DE961
:102EF00095E00E94A1188C0F9D1FDF91CF91FF904C
:102F0000EF90DF90CF9008952AE0B701A6018DE9F8
:102F100095E0DF91CF91FF90EF90DF90CF900C94F0
:102F2000A11820E5FC01208311820895FB01DC013A
:102F30008D919C91009761F060817181611571059F
:102F400039F0448155810E94C72621E0892B09F080
:102F500020E0822F0895CF93C82F462F61E070E0C4
:102F60000E940E0361E070E08C2F0E941803811113
:102F7000F9CFCF910895EF92FF920F931F93CF93C4
:102F8000DF9300D0CDB7DEB78C0165E572E00E941B
:102F900077180E94371697FD1EC089831A82F801A0
:102FA000E480F580FFEFEF1AFF0AB701C8010E9425
:102FB0002018882371F3F801208131818481958163
:102FC000BE016F5F7F4F820F931F0E94C026F801E2
:102FD000F582E482DECFC8010F900F90DF91CF9190
:102FE0001F910F91FF90EF9008950895CF92DF9277
:102FF000EF92FF920F931F93CF93DF936C017A01AF
:103000008B01C0E0D0E0CE15DF0581F0D8016D91D5
:103010008D01D601ED91FC910190F081E02DC6016A
:103020000995892B11F02196EECF7E01C701DF9122
:10303000CF911F910F91FF90EF90DF90CF90089567
:103040000F931F93CF93DF93EC01888199810097B1
:1030500029F02A813B812617370788F48B016F5F9F
:103060007F4F0E94DF25009761F0998388831B833F
:103070000A832C813D81232B11F4FC01108281E015
:1030800001C080E0DF91CF911F910F910895EF92E1
:10309000FF920F931F93CF93DF93EC017B018A0183
:1030A000BA010E9420182881398181110DC0211593
:1030B000310519F0C9010E945625198218821D8216
:1030C0001C821B821A8206C01D830C83B701C901B2
:1030D0000E94C026CE01DF91CF911F910F91FF90EA
:1030E000EF900895FC01808191810C945625FC019C
:1030F0001182108213821282158214826115710569
:1031000051F0FB0101900020E9F73197AF01461B18
:10311000570B0C94471808956115710579F0FB0160
:1031200001900020E9F73197AF01461B570BDC01F6
:10313000ED91FC910280F381E02D099480E090E014
:1031400008958F929F92AF92BF92EF92FF920F934A
:103150001F93CF93DF93CDB7DEB7A1970FB6F89447
:10316000DEBF0FBECDBF7C01FA01CB0119A2223018
:1031700008F42AE08E010F5D1F4F822E912CA12CA6
:10318000B12CBF01A50194010E946823F901CA0175
:10319000015011096A3014F4605D01C0695CD80106
:1031A0006C93232B242B252B61F7B801C7010E94B8
:1031B0008C18A1960FB6F894DEBF0FBECDBFDF917D
:1031C000CF911F910F91FF90EF90BF90AF909F9084
:1031D0008F90089588E496E00C947218CF93DF9353
:1031E000CDB7DEB761970FB6F894DEBF0FBECDBF87
:1031F000789484B5826084BD84B5816084BD85B5D2
:10320000826085BD85B5816085BD80916E008160DD
:1032100080936E0010928100809181008260809383
:103220008100809181008160809381008091800085
:103230008160809380008091B10084608093B100B0
:103240008091B00081608093B00080917A008460AA
:1032500080937A0080917A00826080937A008091D6
:103260007A00816080937A0080917A0080688093F0
:103270007A001092C100E091AD05F091AE0582E0B8
:103280008083E091A905F091AA051082E091AB0539
:10329000F091AC058FEC80831092B505E091B105FB
:1032A000F091B20586E08083E091AF05F091B00522
:1032B000808180618083E091AF05F091B0058081CD
:1032C00088608083E091AF05F091B00580818068CF
:1032D0008083E091AF05F091B00580818F7D808380
:1032E00061E08DE00E94341260E087E00E943412B9
:1032F00060E088E00E94341261E083E00E943412B2
:1033000061E085E00E94341261E086E00E943412A0
:1033100080916105811107C086E495E00E941E023C
:1033200081E08093610583E095E09093410680936E
:1033300040060E94C307CE0101962C010E949117FE
:1033400089819A810E94580346E050E062E071E072
:1033500089E090E00E9453138AE991E09A8389837F
:103360001B821C821D821E82CE0103960E94500386
:103370000E9457030091400610914106D801929691
:103380001D921D921D921C929597F80116A217A2EC
:1033900010A611A69A961D921D921D921C929D97A1
:1033A00080E69AEEA0E0B0E086AB97ABA0AFB1AFFD
:1033B00080EA9FE0A0E0B0E082AF93AFA4AFB5AFEA
:1033C0003E9684E1DF011D928A95E9F786E0E2E00E
:1033D000F1E0D801189601900D928A95E1F7380135
:1033E000B2E46B0E711CF30110820E94461F2FEC99
:1033F00037E040E050E00E94FF22DC01CB01019663
:10340000A11DB11DF80184839583A683B7838083B2
:103410009183A283B383C8018D5B9F4F998B888B67
:103420000E946D0164E470E0888999890E94A70177
:10343000811118C08BE293E00E946B168AE991E03B
:103440009A83898380915D0690915E06A0915F06C4
:10345000B09160068B839C83AD83BE83C2010E94C2
:10346000520804C20E94AA124B015C01212C312C8B
:1034700048EEC42E43E0D42EE12CF12CD3018C91E4
:10348000833009F4FEC081111FC0F8018481958149
:10349000A681B7810196A11DB11D84839583A68362
:1034A000B7830E94AA12681979098A099B09A701A2
:1034B00096010E946823A90161E0C8010E94BD092C
:1034C00081E0D3018C93C5C08430E9F4F801848194
:1034D0009581A681B7810196A11DB11D8483958335
:1034E000A683B7830E94AA12681979098A099B09E1
:1034F000A70196010E946823A90163E0C8010E9408
:10350000BD09E2E02AC0813059F5D801DA964D9123
:103510005D916D917C91DD979201C8010E947A0DB9
:103520008F87823009F090C089819A81AB81BC81FC
:10353000F80184839583A683B7830E94AA12681931
:1035400079098A099B09A70196010E946823A901AC
:1035500063E0C8010E94BD09EF85D301EC9379C0F7
:10356000823009F076C0D801DA964D915D916D9167
:103570007C91DD979201C8010E947A0D8F8785307A
:1035800009F05CC083E0F3018083F80182A193A17C
:10359000A4A1B5A1892B8A2B8B2B41F484E893E05D
:1035A000A0E0B0E082A393A3A4A3B5A3F80186A1F1
:1035B00097A1A0A5B1A5892B8A2B8B2B61F482A1A1
:1035C00093A1A4A1B5A1B695A7959795879586A334
:1035D00097A3A0A7B1A7F80182A593A5A4A5B5A517
:1035E000892B8A2B8B2BA9F482A193A1A4A1B5A12D
:1035F000AC01BD0123E076956795579547952A95CF
:10360000D1F7841B950BA60BB70B82A793A7A4A792
:10361000B5A7F80186A197A1A0A5B1A586A797A7F0
:10362000A0ABB1AB82A593A5A4A5B5A582AB93AB86
:10363000A4ABB5AB22242394312C0BC0FF85F6300C
:1036400019F4D3011C9205C0BF85BF3F11F4F301EB
:103650001082F1E02F16310409F410CF0E94AA1253
:10366000DC01CB0188199909AA09BB09F80126A92F
:1036700037A940AD51AD281739074A075B0708F055
:10368000FDCE888999890E946D01F8018481958118
:10369000A681B7810196A11DB11D84839583A68360
:1036A000B7830E94AA12F801FE9660837183828319
:1036B0009383F1E02F16310409F050C0C2010E943B
:1036C000911789819A810E945803609140067091F8
:1036D0004106625F7F4FC2010E947811CE010396BE
:1036E0000E94500360914006709141066A5E7F4FD0
:1036F000C2010E94781144E050E0BE016D5F7F4F2F
:1037000081E090E00E945313609140067091410661
:103710006E5E7F4FC2010E94781144E050E0BE010E
:103720006D5F7F4F85E090E00E9453130E94570326
:103730006091400670914106625E7F4FC2010E9417
:1037400078118B819C81AD81BE8180933C069093E2
:103750003D06A0933E06B0933F0603C0232809F41C
:1037600069CE83E693E00E9458170AE911E01A83B4
:1037700009831B821C821D821E82CE0107960E9435
:1037800091178F8198850E94580344E050E0BE0154
:103790006D5F7F4F8FE090E00E9423130E945703DC
:1037A0006DE975E0C2010E943F0F63E572E08DE9AB
:1037B00095E00E948C181A8309838091630690918A
:1037C0006406A0916506B09166068B839C83AD83E9
:1037D000BE834AE25BE2B2018EE496E00E94750489
:1037E000892BC1F08DE693E00E946B168EE496E083
:1037F0000E941502892BD1F38EE496E00E9483018A
:103800008823A1F18EE496E00E941502892B09F02D
:1038100053C12CC08DE294E00E946B1685E090E0CD
:103820009093FE048093FD04909300058093FF0421
:103830008AE090E0909302058093010580E090E09B
:10384000A0E0BFE38093F9049093FA04A093FB04F3
:10385000B093FC0480E090E0A0ECBFE38093F5041B
:103860009093F604A093F704B093F80483E694E0F1
:103870000E946B163E019DE0690E711C8DEFE82ED3
:1038800084E0F82E9FEFC92E94E0D92E21E0A22EDD
:1038900025E0B22E32E9832E34E0932E8EE496E0BA
:1038A0000E948301882309F4E2C08EE496E00E941E
:1038B0001502892B09F4DFC0C2010E94BB17B201B7
:1038C00088E496E00E94410DC2010E94721882E7CE
:1038D00094E00E946B1640914C0650914D06609109
:1038E0004806709149068DE995E00E94F61763E558
:1038F00072E08DE995E00E948C1818861F821A8666
:1039000019861C861B8660914806709149066115D0
:10391000710541F040914C0650914D06CE0107963D
:103920000E94471864E774E0C2010E9477182B8553
:103930003C858D819E812817390738F0B201CE0170
:1039400007960E949617182F01C010E0C2010E942E
:103950007218112321F088E794E00E946B166DE83D
:1039600074E0C2010E9477182B853C858D819E8171
:103970002817390738F0B201CE0107960E94961732
:10398000182F01C010E0C2010E947218112309F41F
:1039900069C00B851C850115110519F41092690584
:1039A00010C00D31110510F00DE110E06F81788528
:1039B000A80189E695E00E94D526F801E759FA4F5B
:1039C000108289E695E00E946B165F924F927F927B
:1039D0006F92FF92EF92DF92CF92BF92AF929F923F
:1039E0008F9289E695E09F938F930E94E4266D85E0
:1039F0007E85072E000C880B990B0E94DF212AE0A0
:103A000037ED43E25CE30E943E226093F904709339
:103A1000FA048093FB049093FC0469817A81072E59
:103A2000000C880B990B0E94DF212AE037ED43E25E
:103A30005CE30E943E226093F5047093F604809349
:103A4000F7049093F8040E940D0586EA94E00E9422
:103A50006B168DE995E00E943F100FB6F894DEBF1B
:103A60000FBECDBFCE0107960E94721822C088EC0F
:103A700094E00E946B1625E030E043E050E066E001
:103A800070E080910105909102050E94DB0523E022
:103A900030E046E050E065E070E08091FF049091F6
:103AA00000050E94DB058091FD049091FE040E94B8
:103AB0005B050E946110F2CE18861F821A86198655
:103AC0001C861B8660914806709149066115710538
:103AD00041F040914C0650914D06CE0107960E9450
:103AE0004718C2010E94BB17B201CE0107960E947F
:103AF000410DC2010E94721868E773E0C2010E9482
:103B000077182B853C858D819E812817390738F0E1
:103B1000B201CE0107960E949617182F01C010E03F
:103B2000C2010E947218112309F471C00B851C8513
:103B30000115110519F41092690510C00D31110518
:103B400010F00DE110E06F817885A80189E695E01D
:103B50000E94D526F801E759FA4F108289E695E0D0
:103B60000E946B165F924F92CE010D969F938F939A
:103B70008DEF94E09F938F938FEF94E09F938F93BB
:103B800081E095E09F938F938CE793E09F938F93D1
:103B900089E695E09F938F930E94E4266D857E854C
:103BA000072E000C880B990B0E94DF212AE037EDCD
:103BB00043E25CE30E943E226093F9047093FA04AE
:103BC0008093FB049093FC0469817A81072E000C9A
:103BD000880B990B0E94DF212AE037ED43E25CE37A
:103BE0000E943E226093F5047093F6048093F704DC
:103BF0009093F8040E940D058DE995E00E943F1016
:103C00000FB6F894DEBF0FBECDBF11E02FC08FE816
:103C100093E00E946B1685E090E09093FE04809301
:103C2000FD04909300058093FF048AE090E0909358
:103C300002058093010580E090E0A0E0BFE380935F
:103C4000F9049093FA04A093FB04B093FC0480E081
:103C500090E0A0ECBFE38093F5049093F604A0936A
:103C6000F704B093F8040E940D0510E0CE0107960A
:103C70000E947218112329F082EC93E00E946B16C7
:103C8000F5CD82EF93E0C8CDEDE9F5E01382128225
:103C900048EE53E060E070E04483558366837783A9
:103CA00084E491E09183808385EC90E0958784871C
:103CB00084EC90E09787868780EC90E0918B808BF6
:103CC00081EC90E0938B828B82EC90E0958B848BDF
:103CD00086EC90E0978B868B118E128E138E148E4D
:103CE000E7E6F6E08AE991E091838083128213820D
:103CF00014821582EDE6F6E09183808312821382AE
:103D000014821582E3E7F6E09183808312821382A6
:103D100014821582E9E7F6E0918380831282138290
:103D200014821582EAE3F6E0918380831282138283
:103D300014821582E2E4F6E091838083128213827A
:103D400014821582EFE7F6E091838083128213825A
:103D500014821582E5E8F6E0918380831282138253
:103D600014821582E1E6F6E091838083A0ECA283C1
:103D700038EA338321E02483BEE8B583EBE5F6E03F
:103D800091838083A2833383248388EC8583EEE44C
:103D9000F6E013821282448355836683778384E737
:103DA00091E09183808384E0848765E572E088E414
:103DB00096E00C947718EF920F931F93CF93DF93B5
:103DC000E80147FD02C034E001C034E1042E000CDC
:103DD000550B57FF03C0519541955109E32E022F12
:103DE000242FAE010E949D1FCE01DF91CF911F9124
:103DF0000F91EF9008958F929F92AF92BF92CF92C2
:103E0000DF92EF92FF92CF93DF93EC01688179818B
:103E10008A819B81611571058105910521F464E218
:103E200079ED8BE597E02DE133EF41E050E00E9422
:103E3000FF2249015A019B01AC01A7EAB1E40E94AB
:103E40001E236B017C01ACEEB4EFA50194010E942E
:103E50002C23DC01CB018C0D9D1DAE1DBF1DB7FFBA
:103E600003C00197A109B04888839983AA83BB83C3
:103E7000BC01CD019F77DF91CF91FF90EF90DF9054
:103E8000CF90BF90AF909F908F9008958F929F9208
:103E9000AF92BF92CF92DF92EF92FF9260910801B2
:103EA0007091090180910A0190910B0161157105D2
:103EB0008105910521F464E279ED8BE597E02DE130
:103EC00033EF41E050E00E94FF2249015A019B017B
:103ED000AC01A7EAB1E40E941E236B017C01ACEEA9
:103EE000B4EFA50194010E942C23DC01CB018C0DC1
:103EF0009D1DAE1DBF1DB7FF03C00197A109B048AE
:103F00008093080190930901A0930A01B0930B01DB
:103F1000BC01CD019F77FF90EF90DF90CF90BF90D5
:103F2000AF909F908F90089560930801709309015E
:103F300080930A0190930B010895A9E0B0E0E3EAB1
:103F4000FFE10C9437236A01122FB02E2BE32017C8
:103F500020F0FF24F394F00E02C02CE3F22E0F2D7C
:103F600027E0AE014F5F5F4F0E94F720BC014981FF
:103F7000842F8970813031F0E1FC06C0E0FE06C07C
:103F800090E205C09DE203C09BE201C090E05E2D7F
:103F9000507143FF3CC0911102C083E001C084E036
:103FA000811718F4212F281B01C020E051110BC0EC
:103FB000F601822F30E2882319F031938150FBCF34
:103FC000C20ED11C20E0992329F0D6019C93F60162
:103FD00031966F01C6010396E2FE0AC03EE4D601A7
:103FE0003C9341E411964C93119712963C9306C072
:103FF0003EE6F601308341E641833283FC01322FF5
:1040000040E2332309F442C041933150FACF42FFDA
:1040100044C0911102C083E001C084E0811718F40C
:10402000212F281B01C020E051110BC0F601822F67
:1040300030E2882319F031938150FBCFC20ED11C9E
:1040400020E0992329F0D6019C93F60131966F0167
:10405000C6010396E2FE0BC039E4D6013C933EE470
:1040600011963C93119736E412963C9307C039E6BB
:10407000F60130833EE6318336E63283FC01322F8F
:1040800040E2332319F041933150FBCFFC01E20FA2
:10409000F11D10828EEF9FEFA6C021E030E091115C
:1040A00002C020E030E0161617061CF4FB01319622
:1040B00002C0E1E0F0E02E0F3F1FBB2021F0EB2D0E
:1040C000F0E0319602C0E0E0F0E02E0F3F1FE12F5C
:1040D000F0E02E173F071CF4121B212F01C020E037
:1040E0008E2D887159F4F601822F30E2882319F061
:1040F00031938150FBCFC20ED11C20E0992329F0CF
:10410000D6019C93F60131966F0151110BC0F60157
:10411000822F90E3882319F091938150FBCFC20E38
:10412000D11C20E00F2D060F9A81342F307144FFEF
:1041300003C0913309F40150101624F4093018F02B
:1041400008E001C001E0AB0177FF02C040E050E0B1
:10415000FB01E41BF50BA1E0B0E0AC0FBD1FEA0FC3
:10416000FB1F8EE2A82E4B01801A91080B2D10E048
:104170001195019511094F3FBFEF5B0721F4D6015F
:10418000AC9211966D01641775072CF08416950694
:1041900014F4818101C080E3415051093196D60168
:1041A00011967D014017510724F0D6018C936701C9
:1041B000E2CF6417750739F4963320F4953319F478
:1041C000311101C081E3F6018083F701822F90E273
:1041D000882319F091938150FBCFF701E20FF11D75
:1041E000108280E090E02996ECE00C945323283074
:1041F00008F027E03327DA01990F311D87FD916020
:1042000000966105710539F432602E5F3D9330E30D
:104210002A95E1F708959F3F30F0803871056105D8
:1042200009F03C5F3C5F3D93913008F08068911D40
:10423000DF93CF931F930F93FF92EF92192F987FE5
:104240009695E92F96959695E90FFF27EE53FF4F28
:1042500099273327EE24FF24A701E701059008944E
:10426000079428F4360FE71EF81E491F511D660FEC
:10427000771F881F991F0694A1F70590079428F4CB
:10428000E70EF81E491F561FC11D770F881F991F83
:10429000661F0694A1F70590079428F4F80E491FAD
:1042A000561FC71FD11D880F991F661F771F0694C1
:1042B000A1F70590079420F4490F561FC71FD81F78
:1042C000990F661F771F881F0694A9F78491109590
:1042D000177041F0D695C79557954795F794E79491
:1042E0001A95C1F7E8E6F0E06894159015913591BC
:1042F0006591959105907FE27395E118F10A430B62
:10430000560BC90BD009C0F7E10CF11E431F561F15
:10431000C91FD01D7EF4703311F48A95E6CFE8945E
:10432000015030F0080F0AF40027021708F4202F7C
:104330002395022F7A3328F079E37D932A95E9F7C4
:1043400010C07D932A9589F60694979567953795C1
:1043500017951794E118F10A430B560BC90BD009B6
:1043600098F023957E9173957A3308F070E37C93EF
:104370002013B8F77E9170617D9330F0839571E3DF
:104380007D9370E32A95E1F71124EF90FF900F9150
:104390001F91CF91DF91992787FD909508959111F5
:1043A0000C94AB22803219F089508550C8F70895DB
:1043B0000E941A2208F481E00895E89409C097FB4E
:1043C0003EF490958095709561957F4F8F4F9F4FEC
:1043D0009923A9F0F92F96E9BB279395F695879530
:1043E00077956795B795F111F8CFFAF4BB0F11F4F3
:1043F00060FF1BC06F5F7F4F8F4F9F4F16C088239A
:1044000011F096E911C0772321F09EE8872F762FCF
:1044100005C0662371F096E8862F70E060E02AF010
:104420009A95660F771F881FDAF7880F96958795FC
:1044300097F90895990F0008550FAA0BE0E8FEEFD1
:1044400016161706E807F907C0F012161306E40758
:10445000F50798F0621B730B840B950B39F40A2651
:1044600061F0232B242B252B21F408950A2609F42F
:10447000A140A6958FEF811D811D08950E945122B4
:104480000C94C5220E94B72238F00E94BE2220F070
:10449000952311F00C94AE220C94B42211240C94A8
:1044A000F9220E94D62270F3959FC1F3950F50E038
:1044B000551F629FF001729FBB27F00DB11D639FD6
:1044C000AA27F00DB11DAA1F649F6627B00DA11D7C
:1044D000661F829F2227B00DA11D621F739FB00D22
:1044E000A11D621F839FA00D611D221F749F332792
:1044F000A00D611D231F849F600D211D822F762F2B
:104500006A2F11249F5750409AF0F1F088234AF007
:10451000EE0FFF1FBB1F661F771F881F9150504073
:10452000A9F79E3F510580F00C94AE220C94F9221D
:104530005F3FE4F3983ED4F3869577956795B795FA
:10454000F795E7959F5FC1F7FE2B880F911D969514
:10455000879597F9089599278827089597F99F6770
:1045600080E870E060E008959FEF80EC08950024FB
:104570000A941616170618060906089500240A94C8
:1045800012161306140605060895092E0394000C4E
:1045900011F4882352F0BB0F40F4BF2B11F460FFDD
:1045A00004C06F5F7F4F8F4F9F4F089557FD905806
:1045B000440F551F59F05F3F71F04795880F97FBE7
:1045C000991F61F09F3F79F08795089512161306A1
:1045D0001406551FF2CF4695F1DF08C016161706D0
:1045E0001806991FF1CF8695710561050894089505
:1045F000E894BB2766277727CB0197F90895052E06
:1046000097FB1EF400940E94162357FD07D00E94CA
:10461000682307FC03D04EF40C9416235095409564
:10462000309521953F4F4F4F5F4F0895909580955E
:10463000709561957F4F8F4F9F4F08950E948A23F9
:10464000A59F900DB49F900DA49F800D911D1124E6
:104650000895B7FF0C941E230E941E23821B930B08
:1046600008952F923F924F925F926F927F928F9216
:104670009F92AF92BF92CF92DF92EF92FF920F93F1
:104680001F93CF93DF93CDB7DEB7CA1BDB0B0FB6FB
:10469000F894DEBF0FBECDBF09942A8839884888B8
:1046A0005F846E847D848C849B84AA84B984C8844E
:1046B000DF80EE80FD800C811B81AA81B981CE0F45
:1046C000D11D0FB6F894DEBF0FBECDBFED0108952A
:1046D000A1E21A2EAA1BBB1BFD010DC0AA1FBB1F06
:1046E000EE1FFF1FA217B307E407F50720F0A21B78
:1046F000B30BE40BF50B661F771F881F991F1A94E5
:1047000069F760957095809590959B01AC01BD010E
:10471000CF010895A29FB001B39FC001A39F700D68
:10472000811D1124911DB29F700D811D1124911DB9
:1047300008955058BB27AA270E94B1230C94C52284
:104740000E94B72238F00E94BE2220F039F49F3F29
:1047500019F426F40C94B4220EF4E095E7FB0C94C3
:10476000AE22E92F0E94D62258F3BA1762077307C8
:104770008407950720F079F4A6F50C94F8220EF43E
:10478000E0950B2EBA2FA02D0B01B90190010C0161
:10479000CA01A0011124FF27591B99F0593F50F479
:1047A000503E68F11A16F040A22F232F342F4427D1
:1047B000585FF3CF469537952795A795F0405395C9
:1047C000C9F77EF41F16BA0B620B730B840BBAF099
:1047D0009150A1F0FF0FBB1F661F771F881FC2F704
:1047E0000EC0BA0F621F731F841F48F48795779518
:1047F0006795B795F7959E3F08F0B0CF9395880FD2
:1048000008F09927EE0F9795879508950E941A242E
:104810000C94C5220E94BE2258F00E94B72240F09C
:1048200029F45F3F29F00C94AE2251110C94F92227
:104830000C94B4220E94D62268F39923B1F3552335
:1048400091F3951B550BBB27AA27621773078407A3
:1048500038F09F5F5F4F220F331F441FAA1FA9F339
:1048600035D00E2E3AF0E0E832D091505040E69527
:10487000001CCAF72BD0FE2F29D0660F771F881F88
:10488000BB1F261737074807AB07B0E809F0BB0B7B
:10489000802DBF01FF2793585F4F3AF09E3F51058F
:1048A00078F00C94AE220C94F9225F3FE4F3983E2A
:1048B000D4F3869577956795B795F7959F5FC9F778
:1048C000880F911D9695879597F90895E1E0660FF9
:1048D000771F881FBB1F621773078407BA0720F072
:1048E000621B730B840BBA0BEE1F88F7E0950895DB
:1048F0000E94DE2288F09F5798F0B92F9927B75170
:10490000B0F0E1F0660F771F881F991F1AF0BA9573
:10491000C9F714C0B13091F00E94F822B1E00895B7
:104920000C94F822672F782F8827B85F39F0B93FA9
:10493000CCF3869577956795B395D9F73EF4909526
:104940008095709561957F4F8F4F9F4F08950E947E
:104950001A2208F48FEF08950E941A22880B990BEF
:104960000895692796276927782787277827089544
:10497000EE0FFF1F0590F491E02D09940F931F9304
:10498000CF93DF938230910510F482E090E0E091C4
:104990008D06F0918E0620E030E0A0E0B0E0309788
:1049A00019F1408151810281138148175907C8F0DC
:1049B0008417950769F4109731F012960C931297AB
:1049C00013961C9327C000938D0610938E0622C069
:1049D0002115310519F04217530718F49A01BD014A
:1049E000EF01DF01F801DBCF21153105F9F0281BBC
:1049F000390B2430310580F48A819B816115710562
:104A000021F0FB019383828304C090938E068093F0
:104A10008D06FE01329644C0FE01E20FF31F819322
:104A2000919322503109398328833AC020918B0613
:104A300030918C06232B41F420910E0130910F010F
:104A400030938C0620938B0620910C0130910D0140
:104A50002115310541F42DB73EB740911001509119
:104A60001101241B350BE0918B06F0918C06E217A7
:104A7000F307A0F42E1B3F0B2817390778F0AC0181
:104A80004E5F5F4F2417350748F04E0F5F1F50935E
:104A90008C0640938B068193919302C0E0E0F0E096
:104AA000CF01DF91CF911F910F910895CF93DF93A5
:104AB000009709F481C0FC01329713821282A09101
:104AC0008D06B0918E06109781F420813181820F7E
:104AD000931F20918B0630918C062817390751F5CA
:104AE000F0938C06E0938B0667C0ED0120E030E088
:104AF000CE17DF0740F44A815B819E0141155105C5
:104B0000F1F0EA01F5CFD383C28340815181840F54
:104B1000951FC817D90759F488819981840F951F6B
:104B20000296918380838A819B819383828321155E
:104B3000310529F4F0938E06E0938D063DC0E9011E
:104B4000FB83EA8349915991C40FD51FEC17FD07E8
:104B500061F480819181840F951F0296E901998308
:104B60008883828193819B838A83E0E0F0E01296C0
:104B70008D919C911397009719F0FD01DC01F7CFFF
:104B80008D919C9111979D012E5F3F4F820F931F36
:104B900020918B0630918C062817390769F43097DD
:104BA00029F410928E0610928D0602C01382128292
:104BB000B0938C06A0938B06DF91CF910895A0E06F
:104BC000B0E0E5EEF5E20C943523EC01009721F41A
:104BD000CB010E94BE24B4C0FC01E60FF71F9C016C
:104BE00022503109E217F30708F4A8C0D9010D914A
:104BF0001C91119706171707B0F00530110508F43E
:104C00009BC0C80104978617970708F495C0025007
:104C10001109061B170B019311936D937C93CF0120
:104C20000E94562589C05B01A01AB10A4C01800E72
:104C3000911EA0918D06B0918E06612C712CE12CF5
:104C4000F12C109709F446C08D919C911197A815ED
:104C5000B905B1F56C0142E0C40ED11CCA14DB04E5
:104C600078F14C018A189B08640142E0C40ED11C03
:104C70001296BC9012971396AC91B5E0CB16D10466
:104C800040F0B282A38391828082D9016D937C939C
:104C900009C00E5F1F4F800F911FF9019183808320
:104CA000EB2DFA2FE114F10431F0D7011396FC93A8
:104CB000EE93129741C0F0938E06E0938D063CC0B0
:104CC0006816790608F43C017D0112960D90BC919E
:104CD000A02DB7CF80918B0690918C0688169906EF
:104CE000E1F466167706C8F480910C0190910D01ED
:104CF000009741F48DB79EB740911001509111017A
:104D0000841B950BE817F907C8F4F0938C06E09321
:104D10008B06F901718360830FC0CB010E94BE2412
:104D20007C01009759F0A801BE010E94B726CE0170
:104D30000E945625C70104C0CE0102C080E090E069
:104D4000CDB7DEB7EEE00C94512381E090E0F8940B
:104D50000C940C2AFB01DC0104C08D910190801998
:104D600021F441505040C8F7881B990B0895FB016E
:104D7000DC0102C001900D9241505040D8F70895D7
:104D8000FB01DC0101900D920020E1F70895FB0189
:104D9000DC014150504030F08D910190801919F4A0
:104DA0000020B9F7881B990B0895FB01DC014150E5
:104DB000504048F001900D920020C9F701C01D92AB
:104DC00041505040E0F70895AEE0B0E0EAEEF6E280
:104DD0000C94412385E08C838B899C899A838983F9
:104DE000AE01495E5F4F6D897E89CE0101960E94BA
:104DF00099282E96E2E00C945D2320FD09C0FC0169
:104E000023FD05C022FF02C0738362835183408368
:104E1000089544FD17C046FD17C0AB01BC01DA017F
:104E2000FB01AA0FBB1FEE1FFF1F1094D1F74A0F03
:104E30005B1F6E1F7F1FCB01BA01660F771F881F94
:104E4000991F09C033E001C034E0660F771F881F47
:104E5000991F3150D1F7620F711D811D911D089569
:104E60000F931F93CF93DF938C01C8010E94B52944
:104E7000EC0197FD08C00E94CF21892BB1F7B80142
:104E8000CE010E94F329CE01DF91CF911F910F91A6
:104E900008958F929F92AF92BF92EF92FF920F93DD
:104EA0001F93CF93DF938C01D62F7A01B22E0E94ED
:104EB000B5299C0133272B32310531F02D323105D4
:104EC00061F48B2D8068B82ED15011F480E068C059
:104ED000C8010E94B52997FDF9CFCB2DCD7F2B2D91
:104EE000207309F58033F9F4AA24AA94AD0E09F4CD
:104EF00043C0C8010E94B52997FD3EC09C012F7D8B
:104F000033272835310549F4C264D250A9F1C801CC
:104F10000E94B52997FF07C02FC0B6FE02C0C2602D
:104F200001C0C261DA2D812C912C540120ED280F93
:104F3000283080F0C4FF04C0B8010E94F32919C0D2
:104F40002A3040F0C6FFF8CF2F7D3FEE320F3630CB
:104F500098F727504C2FC501B4010E9409274B0137
:104F60005C01C260D15059F0C8010E94B52997FF79
:104F7000DDCFC1FD04C0AACF812C912C5401C7FF05
:104F800008C0B094A09490948094811C911CA11CA2
:104F9000B11C2C2FB501A401C7010E94FD2681E0A0
:104FA000DF91CF911F910F91FF90EF90BF90AF9045
:104FB0009F908F900895A0E2B0E0E1EEF7E20C94AC
:104FC00034235C01962E7A01F9018E010F5F1F4F89
:104FD000680180E2D8011D928A95E9F7D501139600
:104FE0008C9080E090E0612C712C30E061E070E00A
:104FF00083FC259183FE21918F01522E211103C044
:1050000080E090E092C02E3511F4009751F1432FCB
:1050100050E0481759073CF42D3559F12D3219F459
:10502000772009F103C0772009F46AC0452D469521
:1050300046954695D601A40FB11D452D47708B01AD
:1050400002C0000F111F4A95E2F7A8015C91452BA1
:105050004C93651459F0561410F45394E7CF5A94B6
:10506000E5CF31E004C07724739401C0712C019620
:10507000BFCF772019F08E8180628E83311103C0FB
:105080008824839417C0F6019E012F5D3F4F8081D5
:10509000809581932E173F07D1F7F2CFE114F104E9
:1050A00029F0D7018C93F70131967F019A94812CD6
:1050B0009920F9F0C5010E94B52997FD18C0FC019F
:1050C000FF2723E0F595E7952A95E1F7EC0DFD1D07
:1050D000208130E0AC014770552702C035952795F7
:1050E0004A95E2F720FDDACFB5010E94F32981103D
:1050F00087CFE114F10411F0D7011C92C80115C04B
:10510000422F469546954695D601A40FB11D422FD4
:1051100047708B0102C0000F111F4A95E2F7A801EA
:105120005C91452B4C93622EA2CFA096EFE00C949D
:105130005023A0E0B0E0EFE9F8E20C9434236C01D6
:10514000EB015A01FC0117821682512CF601E38013
:10515000FE01E3FC8591E3FE8191182FEF01882386
:1051600009F4EEC090E00E94CF21892B21F0C60106
:105170000E943027EBCF153241F4FE01E3FC15917C
:10518000E3FE1191EF01153281F4C6010E94B529A9
:1051900097FDD4C0412F50E09C01332724173507D9
:1051A000A9F2B6010E94F329CBC01A3239F4E3FC0C
:1051B0001591E3FE1191EF0101E001C000E0F12C37
:1051C00020ED210F2A3080F402606F2D70E080E026
:1051D00090E040E20E940927F62EFE01E3FC1591C3
:1051E000E3FE1191EF01ECCF01FF03C0F11003C00A
:1051F000A7C0FF24FA94183619F01C3651F010C0DD
:10520000FE01E3FC1591E3FE1191EF01183641F424
:1052100008600460FE01E3FC1591E3FE1191EF01CB
:10522000112309F48DC0612F70E082E691E00E94A5
:10523000AA29892B09F484C000FD07C0F5018080EC
:105240009180C50102965C0102C0812C912C1E3612
:1052500051F4F6014681578160E070E0202FC401CF
:105260000E94FD2673CF1336A9F401FD02C0FF246E
:10527000F394C6010E94B52997FD60C08114910482
:1052800029F0F4018083C40101964C01FA94F110D5
:10529000F0CF50C01B3559F49E01A4016F2DC601FB
:1052A0000E94DB27EC01892B09F044C03EC0C601F7
:1052B0000E94302797FD42C01F3661F128F4143652
:1052C00039F1193651F128C0133771F0153701F152
:1052D00023C08114910429F0F4016082C401019675
:1052E0004C01FA94FF2071F0C6010E94B5293C01DF
:1052F00097FD08C00E94CF21892B59F3B601C30145
:105300000E94F32981149104A9F0F401108212C0C3
:10531000006203C0006101C00064202FA4016F2D52
:10532000C6010E944927811105C0F601838180735F
:1053300029F406C000FD0ACF539408CF552019F078
:10534000852D90E002C08FEF9FEFCDB7DEB7EFE085
:105350000C945023FC010590061621F00020D9F78B
:10536000C00108953197CF010895CF93DF93EC01E9
:105370002B8120FF33C026FF0AC02F7B2B838E8119
:105380009F8101969F838E838A8190E029C022FFAE
:105390000FC0E881F9818081082E000C990B0097DD
:1053A00019F420622B831AC03196F983E8830EC06A
:1053B000EA85FB85099597FF09C02B81019611F0BD
:1053C00080E201C080E1822B8B8308C02E813F8167
:1053D0002F5F3F4F3F832E83992702C08FEF9FEFB0
:1053E000DF91CF910895FB01238120FF12C026FD9C
:1053F00010C08F3F3FEF930761F082832F7D2064C1
:1054000023832681378121503109378326839927C9
:1054100008958FEF9FEF089510E0C5EED0E004C02F
:10542000FE010E94B8242196C63ED107C9F7F89420
:02543000FFCFAC
:1054320000C0DEADBEEFFEED0100000000008F06F1
:10544200800000000000BA1033116A01B910100187
:10545200B914D413A701A9156D015B033802EA1030
:10546200E2149A1428011801140101005E000000E0
:1054720000000000F20FF617890F3F10BA0F980FC5
:10548200AC0F00000000D010F6176A01F517D0101B
:10549200D010D01000000000D010F6176A01F517E6
:1054A200000000004501EB036A0144011502FB0103
:1054B200D4017504A302F7019F0383013C01670134
:1054C200650131015B01000000003F0F0000000098
:1054D200D0100A2D2D2D2D2D2D2D2D2D2D2D2D497B
:1054E2006E74657276616C6F7328656D2073656783
:1054F200756E646F73292D2D2D2D2D2D2D2D2D2D96
:105502002D2D2D2D2D2D2D2D0A20005665726D6508
:105512006C686F3A20002C20416D6172656C6F3AA5
:1055220020002C2056657264653A20000A2D2D2D2C
:105532002D2D2D2D2D2D2D2D2D4C696D69746573FD
:105542002064652056656C6F636964616465202818
:10555200656D206D2F73292D2D2D2D2D2D2D2D2D8A
:105562002D2D2D2D2D2D2D2D2D200A004D696E69ED
:105572006D61203A20002C204DC3A178696D612015
:105582003A20000D0A000A2D2D2D2D2D2D2D2D2D09
:105592002D2D2D46696D2D2D2D2D2D2D2D2D2D2DA4
:1055A2002D2D2D2D2D2D2D2D200056656C6F63690F
:1055B20064616465204465746563746164613A2062
:1055C2000056656C6F63696461646520616261693C
:1055D200786F20646F73206C696D6974657300560F
:1055E200656C6F6369646164652064656E74726F73
:1055F20020646F73206C696D697465730056656C05
:105602006F636964616465206163696D6120646FC1
:1056120073206C696D6974657300456E76696164A7
:105622006F2070617261207365727669646F722196
:105632000056656C6F63696461646520696E76C348
:10564200A16C696461206520646573636172746131
:105652006461210057495A6E65740024204448430E
:10566200502046616C686F752120417472696275C1
:10567200696E646F20495020657374C3A1746963B5
:105682006F203A203139322E3136382E312E3230D7
:10569200302000444843502049503A2000436F6E66
:1056A20065637461646F210054545600545456204B
:1056B20025642C25642C25642C25642C2564004447
:1056C200757261C3A7C3B56573206EC3A36F2072E1
:1056D200656365626964617321205573616E646FED
:1056E2002076616C6F7265732070616472C3B565F8
:1056F2007300436F6E666967757261C3A7C3B56550
:1057020073207265636562696461732120436F6D02
:1057120065C3A7616E646F2070726F6772616D619D
:10572200210046616C686120616F20726563656269
:10573200657220636F6E666967757261C3A7C3B5D0
:10574200657321205573616E646F2076616C6F7290
:1057520065732070616472C3B565732100436F6E17
:105762006578C3A36F20616F207365727669646F79
:10577200722066616C686F752120456E7472616E6D
:10578200646F20656D206D6F646F206F66666C6953
:105792006E650050726F6772616D2053746172742E
:1057A200210024004344450043444520526571755D
:1057B200657374207265636569766564005550444B
:1057C2005400555044542025642C25642C25642C07
:1057D20025642C25640041637475616C697A61C328
:1057E200A7C3A36F20666569746120636F6D207320
:1057F20075636573736F210024204D6F646F204FB2
:1058020066666C696E65006E616E00696E66006F39
:0458120076660000B6
:107E0000112484B714BE81FFF0D085E080938100F7
:107E100082E08093C00088E18093C10086E0809377
:107E2000C20080E18093C4008EE0C9D0259A86E02C
:107E300020E33CEF91E0309385002093840096BBD3
:107E4000B09BFECF1D9AA8958150A9F7CC24DD24C4
:107E500088248394B5E0AB2EA1E19A2EF3E0BF2EE7
:107E6000A2D0813461F49FD0082FAFD0023811F036
:107E7000013811F484E001C083E08DD089C08234E0
:107E800011F484E103C0853419F485E0A6D080C0E4
:107E9000853579F488D0E82EFF2485D0082F10E0AE
:107EA000102F00270E291F29000F111F8ED06801E7
:107EB0006FC0863521F484E090D080E0DECF843638
:107EC00009F040C070D06FD0082F6DD080E0C81688
:107ED00080E7D80618F4F601B7BEE895C0E0D1E017
:107EE00062D089930C17E1F7F0E0CF16F0E7DF06D8
:107EF00018F0F601B7BEE89568D007B600FCFDCFD4
:107F0000A601A0E0B1E02C9130E011968C91119780
:107F100090E0982F8827822B932B1296FA010C0160
:107F200087BEE89511244E5F5F4FF1E0A038BF0790
:107F300051F7F601A7BEE89507B600FCFDCF97BE46
:107F4000E89526C08437B1F42ED02DD0F82E2BD052
:107F50003CD0F601EF2C8F010F5F1F4F84911BD097
:107F6000EA94F801C1F70894C11CD11CFA94CF0C13
:107F7000D11C0EC0853739F428D08EE10CD085E9AC
:107F80000AD08FE07ACF813511F488E018D01DD067
:107F900080E101D065CF982F8091C00085FFFCCF94
:107FA0009093C60008958091C00087FFFCCF809118
:107FB000C00084FD01C0A8958091C6000895E0E648
:107FC000F0E098E1908380830895EDDF803219F02E
:107FD00088E0F5DFFFCF84E1DECF1F93182FE3DFCA
:107FE0001150E9F7F2DF1F91089580E0E8DFEE27F6
:047FF000FF270994CA
:027FFE00040479
:0400000300007E007B
:00000001FF