:100000000C94E6000C940E010C940E010C940E015D
:100010000C940E010C940E010C940E010C940E0124
:100020000C940E010C940E010C940E010C940E0114
:100030000C940E010C940E010C940E010C940E0104
:100040000C94350B0C940E010C94290A0C94030AA1
:100050000C940E010C940E010C940E010C940E01E4
:100060000C940E010C940E0100407A10F35A00A07B
:10007000724E18090010A5D4E80000E87648170071
:1000800000E40B54020000CA9A3B000000E1F505B1
:10009000000080969800000040420F000000A086FB
:1000A00001000000102700000000E803000000002D
:1000B0006400000000000A000000000001000000D1
:1000C00000002C76D888DC674F0823DFC1DFAE59EB
:1000D000E1B1B796E5E3E453C63AE651997696E87E
:1000E000E6C28426EB898C9B62ED407C6FFCEFBC02
:1000F0009C9F40F2BAA56FA5F490055A2AF75C932D
:100100006B6CF9676DC11BFCE0E40D47FEF520E662
:10011000B500D0ED902E0300943577050080841E45
:10012000080000204E0A000000C80C333333330FA0
:10013000986E12831141EF8D2114893BE65516CF3D
:10014000FEE6DB18D1844B381BF77C1D901DA4BB49
:10015000E424203284725E228100C9F124ECA1E5FE
:100160003D276364696E6F70737578585B0000009B
:100170000000250028002B000000000023002600BE
:10018000290000000008000201000003040700002D
:1001900000000000000000000000240027002A00EA
:1001A000010204081020408001020408102001020E
:1001B00004081020040404040404040402020202DB
:1001C00002020303030303039D1E171911241FBE1C
:1001D000CFEFD8E0DEBFCDBF14E0A0E0B1E0E4EEA9
:1001E000F4E502C005900D92AC3AB107D9F726E0CC
:1001F000ACEAB4E001C01D92A735B207E1F710E008
:10020000C5EED0E004C02197FE010E941125C43E36
:10021000D107C9F70E941B190C94652A0C940000A1
:10022000FC01818D928D0895FC0184899589089542
:100230002AE931E0FC0131832083FB0140895189A7
:1002400062897389FC0142835383648375830895B3
:10025000DC01ED91FC91048CF58DE02D099480E09A
:100260000895FC019485FB018485981303C081E007
:10027000943009F480E0089521E0FC018485843005
:1002800009F420E0822F08950895CF93DF931F9201
:10029000CDB7DEB76983DC01ED91FC910280F3817B
:1002A000E02D41E050E0BE016F5F7F4F09950F9058
:1002B000DF91CF910895DC01ED91FC91068CF78DD3
:1002C000E02D099591E089270895862F089581E012
:1002D0008627089580E090E00895CF93DF93FC0196
:1002E000808D843029F0EF010E94BB0D84E0888F5F
:1002F000DF91CF910895FC018485843011F00C9436
:10030000980E80E00895CF93DF93FC01248524307C
:10031000D1F0EC010E947B01843181F0882371F0DF
:10032000883161F08C3161F4E881F9810084F185D4
:10033000E02DCE01099521E0892B19F420E001C0C0
:1003400021E0822F01C080E0DF91CF910895EF92EC
:10035000FF921F93CF93DF93FC01208D243011F087
:1003600080E01CC07B01EC0110E0812F0E94980E00
:10037000811102C0188F05C08831E1F31F5F14306E
:10038000A1F7888D843061F3FD86EC861A8E198E74
:1003900020E0A70162E00E94DD0D81E0DF91CF91B6
:1003A0001F91FF90EF9008950F931F93CF93DF93CA
:1003B0001F92CDB7DEB78C01DC01ED91FC9100847A
:1003C000F185E02D0995892B51F0BE016F5F7F4FBC
:1003D000F80184850E941C0C898190E002C08FEF97
:1003E0009FEF0F90DF91CF911F910F910895FC0126
:1003F00084850C949B0CCF93DF931F92CDB7DEB70F
:1004000041E050E0BE016F5F7F4FFC0184850E9498
:100410009B0C181619061CF4898190E002C08FEF1E
:100420009FEF0F90DF91CF910895FC018485843078
:1004300011F00C946C0C80E090E00895FC011382A4
:10044000128288EE93E0A0E0B0E084839583A683D7
:10045000B78386E191E0918380838AE991E0978771
:100460008687108A118A128A138A84E0808F089501
:10047000AF92BF92CF92DF92EF92FF920F931F93B2
:10048000CF93DF93CDB7DEB7AF970FB6F894DEBF4B
:100490000FBECDBF7C015B016A010AE911E01A833E
:1004A00009831B821C821D821E82CE0109960E9436
:1004B0001E021BA70AA71CA61DA61EA61FA680918A
:1004C000F3059091F405A091F505B091F6058EA382
:1004D0009FA3A8A7B9A78B839C83AD83BE831886EF
:1004E0001F82AE01465D5F4FB501CE0101960E94AD
:1004F000E90F81309105B1F4D701ED91FC910684AB
:10050000F785E02D1DA30CA38CA59DA5AEA5BFA5C9
:100510008EA39FA3A8A7B9A7A601BE016C5D7F4FBC
:10052000C7010995AF960FB6F894DEBF0FBECDBFD9
:10053000DF91CF911F910F91FF90EF90DF90CF90BF
:10054000BF90AF900895AF92BF92CF92DF92EF929B
:10055000FF920F931F93CF93DF93CDB7DEB7AF9783
:100560000FB6F894DEBF0FBECDBF7C015B016A0100
:100570000AE911E01A8309831B821C821D821E82F4
:10058000CE0109960E941E021BA70AA71CA61DA643
:100590001EA61FA68091F3059091F405A091F50584
:1005A000B091F6058EA39FA3A8A7B9A78B839C83C0
:1005B000AD83BE8318861F82AE01465D5F4FB501D5
:1005C000CE0101960E94E90F81309105B1F4D70167
:1005D000ED91FC910488F589E02D1DA30CA38CA559
:1005E0009DA5AEA5BFA58EA39FA3A8A7B9A7A60149
:1005F000BE016C5D7F4FC7010995AF960FB6F894A9
:10060000DEBF0FBECDBFDF91CF911F910F91FF9045
:10061000EF90DF90CF90BF90AF9008959B0190E056
:100620000496982F8827642F820F931F0C94010C37
:10063000CF93DF9390E00496982F8827EC01C60FA4
:10064000D71F0E94810B8FE00E949B0B8D2F0E9471
:100650009B0B8C2F0E949B0B80E00E949B0BC82F52
:100660000E947F0B8C2FDF91CF910895CF93DF9362
:10067000C82FD62F472F60E170E00E940E034D2F48
:1006800061E170E08C2FDF91CF910C940E0390E02C
:10069000982F882744E050E0845F9B4F0C94D20B46
:1006A00044E050E0BC018FE090E00C94D20B089540
:1006B0008CBD9DBD0895DF92EF92FF920F931F9323
:1006C000CF93DF9300D0CDB7DEB7FB01DC015796A7
:1006D0001C921E9256972281211109C0238121115B
:1006E00006C02481211103C025812223E1F0411598
:1006F0005105C9F07A018F01FC01D08CCE01019621
:100700000E948D1489819A810E945803B8016E5FFE
:100710007F4F8D2D0E944703B7018D2D0E94360318
:1007200081E090E002C080E090E00F900F90DF91B8
:10073000CF911F910F91FF90EF90DF900895CF928E
:10074000DF92EF92FF920F931F93CF93DF9300D02E
:10075000CDB7DEB7FC01F484F4E0FF1689F18C011B
:10076000CE0101960E948D1489819A810E945803BE
:1007700068E070E08F2D0E94F9140E94290B6B0134
:100780007C01C8010E947B018823B9F061E070E020
:1007900080E090E00E94EF0A0E94290BDC01CB016F
:1007A0008C199D09AE09BF09883E9340A105B1058A
:1007B00040F3F80184850E94BB0D84E0F801848732
:1007C0000F900F90DF91CF911F910F91FF90EF90BD
:1007D000DF90CF9008956F927F928F929F92AF9209
:1007E000BF92CF92DF92EF92FF921F93CF93DF934E
:1007F00000D0CDB7DEB75C013B016A01FC01148576
:10080000143041F481E090E0F5019383828380E02D
:1008100090E05BC07A014130584018F0E12C88E04C
:10082000F82ECE0101960E948D1489819A810E9432
:100830005803812F0E94E7164C0163E070E0812F7E
:100840000E941803873111F08C3121F48E149F041B
:1008500040F302C0E12CF12CCE0101960E948D14D0
:1008600089819A810E9458039701A30160E070E09A
:10087000812F0E94821660E270E0812F0E94F9149D
:1008800062E070E0812F0E94180384FD14C063E0D1
:1008900070E0812F0E941803811104C0812F0E94F3
:1008A000BB0DB0CFCE0101960E948D1489819A8133
:1008B0000E945803E5CF40E162E070E0812F0E9482
:1008C0000E03EF2809F49ECFC6010F900F90DF9121
:1008D000CF911F91FF90EF90DF90CF90BF90AF909E
:1008E0009F908F907F906F900895AF92BF92DF920C
:1008F000EF92FF920F931F93CF93DF9300D0CDB76A
:10090000DEB7FC012485243009F076C05A018B0142
:100910007C01D12C8D2D0E94980E811103C0F7010E
:10092000D48607C08B7F8831D1F3D394F4E0DF12F3
:10093000F1CFF7018485843009F45EC02091000175
:10094000309101012F5F3F4F11F420E030EC3093E4
:10095000010120930001409100015091010120E02C
:1009600061E00E94DD0DF80182818F3F51F48381A7
:100970008F3F99F484818F3F81F485818F3F69F4A3
:1009800038C081110AC0F8018381811106C08481B9
:10099000811103C08581882361F1A114B10449F15B
:1009A000F701D484CE0101960E948D1489819A8129
:1009B0000E945803B8016E5F7F4F8D2D0E94470340
:1009C000B5018D2D0E94360364E070E08D2D0E94EC
:1009D000F914C7010E947B01873189F061E070E062
:1009E00080E090E00E94EF0AC7010E947B01811124
:1009F000F0CF84E0F701848780E090E002C081E0DE
:100A000090E00F900F90DF91CF911F910F91FF9089
:100A1000EF90DF90BF90AF90089582EA91E00E943E
:100A200079148BED91E00E9479148091C404909127
:100A3000C5040E947E1486EE91E00E947914809194
:100A4000C6049091C7040E947E1482EF91E00E9438
:100A500079148091C8049091C9040E947E148CEF8F
:100A600091E00E9479148CE392E00E9479146091E5
:100A7000C0047091C1048091C2049091C30442E00B
:100A80000E949F1386E492E00E9479146091BC0456
:100A90007091BD048091BE049091BF0442E00E9419
:100AA0009F1363E572E084E595E00E940B1386E5F1
:100AB00092E00C948C134F925F926F927F928F9280
:100AC0009F92AF92BF92CF92DF92EF92FF92CF931D
:100AD000DF9300D000D0CDB7DEB728EE33E0829FA1
:100AE0003001839F700C929F700C112461E083E0B1
:100AF0000E94840A60E085E00E94840A60E086E04B
:100B00000E94840A0E94290B0E9436224B015C013C
:100B1000C12CD12C7601C301770CAA0BBB0B8983A6
:100B20009A83AB83BC8369817A818B819C810E948B
:100B300038222B013C01A5019401C701B6010E9496
:100B4000F2239B01AC01C301B2010E94002587FD85
:100B500007C00E94290B0E9436226B017C01E3CF63
:100B60001092B6041092B5041092B7041092B20419
:100B70001092B4041092B3041092B1041092B00415
:100B80001092AC041092AD041092AE041092AF0417
:100B90000F900F900F900F90DF91CF91FF90EF90FB
:100BA000DF90CF90BF90AF909F908F907F906F908D
:100BB0005F904F9008952F923F924F925F926F9265
:100BC0007F928F929F92AF92BF92CF92DF92EF92DD
:100BD000FF920F931F93CF93DF93CDB7DEB7AB9701
:100BE0000FB6F894DEBF0FBECDBF362FE42EF22E27
:100BF00048EE53E0849F3001859F700C949F700CE9
:100C0000112461E0832F0E94840A60E08E2D0E94EF
:100C1000840A60E08F2D0E94840A0E94290B0E94A2
:100C200036224B015C01C12CD12C7601C301770C1B
:100C3000AA0BBB0B88A799A7AAA7BBA783E0282E5E
:100C4000312C68A579A58AA59BA50E9438222B0185
:100C50003C01A5019401C701B6010E94F2239B014A
:100C6000AC01C301B2010E94002518160CF06DC141
:100C700087E00E945B0A6C019093BB048093BA04E6
:100C800088E00E945B0A7C019093B9048093B804C9
:100C9000CD28F9F491E0E916F104D9F48091B70474
:100CA000811117C08091B5049091B604892B89F405
:100CB0000E94290B7093B4046093B304A1E0A09345
:100CC000B704F092B604E092B50481E090E00E948F
:100CD00092148091B7048823B1F08091B2048111FD
:100CE00012C08091B5049091B604019761F461E05F
:100CF0008DE00E94840A82E090E09093B604809395
:100D0000B5040E9492148091B7048823E9F0809181
:100D1000B8049091B904892BB9F48091B5049091ED
:100D2000B604029789F491E09093B2040E94290BD3
:100D30007093B1046093B0043092B6042092B5046D
:100D400083E090E00E9492148091B704882309F414
:100D5000F5C08091B204882309F4F0C08091B504F5
:100D60009091B604039709F0E9C060E08DE00E941D
:100D7000840A6091B0047091B1048091B3049091A1
:100D8000B404681B790B072E000C880B990B0E948A
:100D900038222FE632E143E85AE30E9497229B0172
:100DA000AC0161ED72E28BE99EE30E945F246093E7
:100DB000AC047093AD048093AE049093AF048AE7C3
:100DC00092E00E9479146091AC047091AD0480911E
:100DD000AE049091AF0442E00E949F1363E572E07D
:100DE00084E595E00E940B131092B7041092B204B0
:100DF0001092B6041092B504C090AC04D090AD042B
:100E0000E090AE04F090AF0420E030E0A901C7010B
:100E1000B6010E94002518160CF08CC020E030E0CE
:100E200048E452E4C701B6010E94312287FF82C024
:100E30004090C0045090C1046090C2047090C304FC
:100E4000A3019201C701B6010E94312287FF03C0AE
:100E500081E992E01BC0A3019201C701B6010E9483
:100E6000002518168CF42091BC043091BD044091EB
:100E7000BE045091BF04C701B6010E94312287FF12
:100E800003C08FEA92E002C08DEC92E00E948C13C6
:100E900085E096E00E948301882309F44FC06091A9
:100EA000AC047091AD048091AE049091AF041BA28C
:100EB0001AA21DA21CA21FA21EA28E010F5F1F4F0D
:100EC00022E044E00E94341F009771F0FC01019081
:100ED0000020E9F73197AF01481B590BBC01CE0147
:100EE00082960E94C6120CC08AA19BA1009711F0A5
:100EF0000E94AF251BA21AA21FA21EA21DA21CA205
:100F0000BE016E5D7F4F8FEF95E00E946512CE01AE
:100F100082960E94F112409103065091040660915E
:100F2000FF057091000685E096E00E94EB038AEED3
:100F300092E002C081E093E00E948C130E94290B92
:100F40000E9436226B017C017CCEAB960FB6F894E2
:100F5000DEBF0FBECDBFDF91CF911F910F91FF90EC
:100F6000EF90DF90CF90BF90AF909F908F907F9049
:100F70006F905F904F903F902F9008958F929F9227
:100F8000AF92BF92CF92DF92EF92FF920F931F9397
:100F9000CF93DF937C01EB016C0182E0C80ED11C82
:100FA0004701E5E08E0E911C00E010E0F601419152
:100FB0006F0150E060E070E02AE0CE010E94201353
:100FC0005C01E881F9810190F081E02D6EE2CE01B3
:100FD00009958A0D9B1D080F191F8C149D0431F76C
:100FE000F701458150E060E070E02AE0CE010E9408
:100FF0002013800F911FDF91CF911F910F91FF90D0
:10100000EF90DF90CF90BF90AF909F908F9008951A
:10101000FC01538D448D252F30E0842F90E0821BFE
:10102000930B541710F0CF96089501970895FC0183
:10103000918D828D981761F0828DDF01A80FB11D0F
:101040005D968C91928D9F5F9F73928F90E0089533
:101050008FEF9FEF0895FC01918D828D981731F0ED
:10106000828DE80FF11D858D90E008958FEF9FEF41
:101070000895FC01918D228D892F90E0805C9F4F17
:10108000821B91098F739927089584E595E00E944A
:10109000390821E0892B09F420E0822F0895FC0112
:1010A000848DDF01A80FB11DA35ABF4F2C91848DF1
:1010B00090E001968F739927848FA689B7892C9326
:1010C000A089B1898C91837080648C93938D848D79
:1010D000981306C00288F389E02D80818F7D80837C
:1010E0000895EF92FF920F931F93CF93DF93EC013C
:1010F00081E0888F9B8D8C8D981305C0E889F989D4
:10110000808185FD26C0F62E0B8D10E00F5F1F4FEE
:101110000F731127E02E8C8DE8120CC00FB607FC60
:10112000FACFE889F989808185FFF5CFCE010E9449
:101130004F08F1CF8B8DFE01E80FF11DE35AFF4FF1
:10114000F0829FB7F8940B8FEA89FB8980818062D7
:101150000AC09FB7F894EE89FF896083E889F9890E
:1011600080818370806480839FBF81E090E0DF9105
:10117000CF911F910F91FF90EF900895CF93DF9340
:10118000EC01888D8823C9F0EA89FB89808185FD7F
:1011900005C0A889B9898C9186FD0FC00FB607FCE0
:1011A000F5CF808185FFF2CFA889B9898C9185FF21
:1011B000EDCFCE010E944F08E7CFDF91CF91089588
:1011C00080E090E0892B29F00E94450881110C9461
:1011D00000000895833081F028F4813099F0823046
:1011E000A1F008958730A9F08830B9F08430D1F4A7
:1011F000809180008F7D03C0809180008F778093E5
:101200008000089584B58F7702C084B58F7D84BD3A
:1012100008958091B0008F7703C08091B0008F7DDA
:101220008093B00008953FB7F89480915005909155
:101230005105A0915205B091530526B5A89B05C054
:101240002F3F19F00196A11DB11D3FBFBA2FA92F45
:10125000982F8827820F911DA11DB11DBC01CD01C2
:1012600042E0660F771F881F991F4A95D1F70895AE
:101270000895CF93DF931F92CDB7DEB76983DC016A
:10128000ED91FC910280F381E02D41E050E0BE0140
:101290006F5F7F4F09950F90DF91CF9108950E9466
:1012A000FE261F93CF93DF93182F66E270E00E9413
:1012B0001803C82FD0E067E270E0812F0E94180366
:1012C000DC2FCC279E01282BC901DF91CF911F91E4
:1012D00008951F93CF93DF9300D0CDB7DEB7FC0105
:1012E000108DCE0101960E948D1489819A810E94F1
:1012F000580360E270E0812F0E94F91462E070E010
:10130000812F0E94180384FD1DC062E070E0812FD0
:101310000E94180383FF0BC048E162E070E0812F58
:101320000E940E030E94570380E090E015C00E94C7
:101330005703CE0101960E948D1489819A810E94E3
:101340005803DCCF40E162E070E0812F0E940E0381
:101350000E94570381E090E00F900F90DF91CF91B2
:101360001F9108958F929F92AF92BF92DF92EF925A
:10137000FF920F931F93CF93DF9300D0CDB7DEB7CB
:101380007C014B018A01FC01A688B788D08CCE0174
:1013900001960E948D1489819A810E9458038D2D97
:1013A0000E94E7168017910720F48D2D0E94E71602
:1013B0008C019801A401B5018D2D0E9482160E9416
:1013C0005703F70186899789800F911F978B868B2A
:1013D000C8010F900F90DF91CF911F910F91FF9057
:1013E000EF90DF90BF90AF909F908F900895DC01B9
:1013F0008AE991E08D939D9384E0FB0101900D9229
:101400008A95E1F708951F920F920FB60F9211245B
:101410002F933F934F935F936F937F938F939F93FC
:10142000AF93BF93EF93FF9384E595E00E944F083D
:10143000FF91EF91BF91AF919F918F917F916F91AC
:101440005F914F913F912F910F900FBE0F901F9082
:1014500018951F920F920FB60F9211242F938F930E
:101460009F93EF93FF93E0916405F0916505808170
:10147000E0916A05F0916B0582FD12C09081809128
:101480006D058F5F8F7320916E05821751F0E0918B
:101490006D05F0E0EC5AFA4F958F80936D0501C011
:1014A0008081FF91EF919F918F912F910F900FBEAF
:1014B0000F901F901895CF93DF93282F30E0F901FC
:1014C000EE57FE4F8491F901E056FE4FD491F90199
:1014D000EC54FE4FC491CC2391F081110E94EA0894
:1014E000EC2FF0E0EE0FFF1FE858FE4FA591B491EE
:1014F000EC91ED2381E090E021F480E002C080E0F7
:1015000090E0DF91CF9108951F93CF93DF93282F21
:1015100030E0F901EE57FE4F8491F901E056FE4F9D
:10152000D491F901EC54FE4FC491CC23C1F0162F95
:1015300081110E94EA08EC2FF0E0EE0FFF1FE25944
:10154000FE4FA591B4919FB7F894111104C08C91EE
:10155000D095D82302C0EC91DE2BDC939FBFDF91A6
:10156000CF911F910895CF93DF9390E0FC01E05657
:10157000FE4F2491FC01EC54FE4F8491882361F1CD
:1015800090E0880F991FFC01EA56FE4FC591D49157
:10159000FC01E259FE4FA591B491611109C09FB7BA
:1015A000F8948881209582238883EC912E230BC0A8
:1015B000623061F49FB7F8948881322F309583238D
:1015C0008883EC912E2B2C939FBF06C08FB7F89485
:1015D000E8812E2B28838FBFDF91CF9108958F92C2
:1015E0009F92AF92BF92CF92DF92EF92FF926B01E8
:1015F0007C010E9413094B015C01C114D104E10478
:10160000F104F1F00E941309DC01CB01881999095A
:10161000AA09BB09883E9340A105B10570F321E0FA
:10162000C21AD108E108F10888EE880E83E0981EFE
:10163000A11CB11CC114D104E104F10419F7DDCFE0
:10164000FF90EF90DF90CF90BF90AF909F908F90E2
:1016500008952FB7F89460914C0570914D058091D5
:101660004E0590914F052FBF08951F920F920FB610
:101670000F9211242F933F938F939F93AF93BF9318
:1016800080914C0590914D05A0914E05B0914F056C
:1016900030914B0523E0230F2D3720F40196A11D37
:1016A000B11D05C026E8230F0296A11DB11D209390
:1016B0004B0580934C0590934D05A0934E05B09338
:1016C0004F058091500590915105A0915205B09120
:1016D00053050196A11DB11D8093500590935105AE
:1016E000A0935205B0935305BF91AF919F918F91F5
:1016F0003F912F910F900FBE0F901F9018952A9A2F
:1017000008952A9808951F93CF93DF93182F60E2CE
:1017100070E00E941803C82FD0E061E270E0812FD2
:101720000E941803DC2FCC279E01282BC901DF91D2
:10173000CF911F9108958EBD00000DB407FEFDCF1F
:101740008EB50895CF92DF92EF92FF920F931F9381
:10175000CF93DF93EC017A018B016C01C40ED51E8F
:10176000CC15DD05A9F00E94810B8FE00E949B0B38
:101770008D2F0E949B0B8C2F0E949B0B219680E04B
:101780000E949B0BF80181938F010E947F0BE8CF91
:10179000C701DF91CF911F910F91FF90EF90DF90E4
:1017A000CF900895CF92DF92EF92FF920F931F9305
:1017B000CF93DF93EC017A018B016C01C40ED51E2F
:1017C000CC15DD05A1F00E94810B80EF0E949B0BE0
:1017D0008D2F0E949B0B8C2F0E949B0B2196F80152
:1017E00081918F010E949B0B0E947F0BE9CFC70163
:1017F000DF91CF911F910F91FF90EF90DF90CF90ED
:1018000008951F93CF93DF93D82F192FC62F0E94CF
:10181000810B80EF0E949B0B812F0E949B0B8D2FD1
:101820000E949B0B8C2F0E949B0B0E947F0B81E0E0
:10183000DF91CF911F910895CF92DF92FF920F9386
:101840001F93CF93DF9300D0CDB7DEB7F82E6B0197
:10185000CE0101960E948D1489819A810E945803BD
:1018600068E270E08F2D0E941803082F10E069E2F3
:1018700070E08F2D0E941803702F6627682B21E0DF
:1018800030E0A6018F2D0E943B160E94570381E095
:1018900090E00F900F90DF91CF911F910F91FF90EB
:1018A000DF90CF900895CF93DF931F92CDB7DEB72F
:1018B000FC01218D328D232B49F0BE016F5F7F4FDC
:1018C000808D0E941C0C898190E002C08FEF9FEFF9
:1018D0000F90DF91CF910895DF92EF92FF920F93D7
:1018E0001F93CF93DF9300D0CDB7DEB7D82ECE01B4
:1018F00001960E948D1489819A810E945803E12CDF
:10190000F12C8D2D0E9451098C01892B21F08D2DF8
:101910000E9451097C010E151F0599F70E9457037B
:10192000C8010F900F90DF91CF911F910F91FF9001
:10193000EF90DF9008958F929F92BF92CF92DF92A7
:10194000EF92FF920F931F93CF93DF9300D0CDB709
:10195000DEB7B82E6B017A01CE0101960E948D147C
:1019600089819A810E945803812C912C8B2D0E9491
:1019700051098C01892B21F08B2D0E9451094C01BA
:101980000815190599F70115110599F463E070E040
:101990008B2D0E9418038431D9F18823C9F101E00D
:1019A00010E08C3111F400E010E01195019511095F
:1019B0002FC0E016F1060CF487011016110644F54D
:1019C00068E270E08B2D0E941803E82EF12C69E28A
:1019D00070E08B2D0E941803FE2CEE24E82A98015B
:1019E000A601B7018B2D0E943B16E00EF11E4F2D74
:1019F00068E270E08B2D0E940E034E2D69E270E0CC
:101A00008B2D0E940E0360E470E08B2D0E94F91470
:101A10000E945703C8010F900F90DF91CF911F9143
:101A20000F91FF90EF90DF90CF90BF909F908F909D
:101A30000895CF93DF93FC01218D328D211531055F
:101A400019F48FEF9FEF11C0EC014217530708F014
:101A5000A901888D0E949B0C1816190694F7298DF0
:101A60003A8D281B390B3A8F298FDF91CF9108953A
:101A70000F931F93CF93DF931F92CDB7DEB7FC0177
:101A8000218D328D232B61F08C0141E050E0BE01AD
:101A90006F5F7F4F808D0E949B0C181619061CF0FB
:101AA0008FEF9FEF08C0F801818D928D0197928F83
:101AB000818F898190E00F90DF91CF911F910F91DD
:101AC00008950F931F93CF93DF93CDB7DEB7289779
:101AD0000FB6F894DEBF0FBECDBF8C01D80159966A
:101AE0008D919C915A97892B41F0ED91FC91028444
:101AF000F385E02DC8010995F1CFF801808D0E9492
:101B00006C0C1816190654F548E050E0BE016F5FE2
:101B10007F4FD80158968C910E949B0C181619067D
:101B2000FCF4D801509684E0FE01319601900D92AC
:101B30008A95E1F78D8190E0982F88272E81820F7A
:101B4000911DF801958B848B8F8190E0982F8827C9
:101B50002885820F911D928F818F02C080E090E0D6
:101B600028960FB6F894DEBF0FBECDBFDF91CF91A0
:101B70001F910F9108951F93CF93DF9300D0CDB79E
:101B8000DEB7182FCE0101960E948D1489819A81AB
:101B90000E94580360E170E0812F0E94F9144FEF1A
:101BA00062E070E0812F0E940E030E9457030F90A5
:101BB0000F90DF91CF911F910895DF92EF92FF92E6
:101BC0000F931F93CF93DF9300D0CDB7DEB7182FBD
:101BD000D62E7A01022F0E94BB0DCE0101960E94E3
:101BE0008D1489819A810E9458034D2D402B60E00D
:101BF00070E0812F0E940E03E114F10459F4E0908B
:101C00004905F0904A058FEFE81AF80AF0924A0564
:101C1000E09249054F2D64E070E0812F0E940E0391
:101C20004E2D65E070E0812F0E940E0361E070E0B0
:101C3000812F0E94F9140E94570381E00F900F90AA
:101C4000DF91CF911F910F91FF90EF90DF9008955A
:101C5000BF92CF92DF92EF92FF920F931F93CF9399
:101C6000DF9300D000D000D0CDB7DEB7FC01208DCF
:101C7000243009F04CC06A017B018C01B12C63E077
:101C800070E08B2D0E941803811103C0F801B08E03
:101C900006C08831D9F3B394F4E0BF12F0CFF80155
:101CA000808D8430A1F196E0EAE3F1E0DE01119647
:101CB00001900D929A95E1F7F70193819F779C83AC
:101CC00094819D8395819E83B7016E5F7F4F0E94B3
:101CD0004703B601F801808D0E943603F801808D1C
:101CE00090E0982F882746E050E0BE016F5F7F4F5D
:101CF0008A5F9B4F0E94D20BF801128E118E20E852
:101D0000A60162E0808D0E94DD0D81E001C080E0CF
:101D100026960FB6F894DEBF0FBECDBFDF91CF91F0
:101D20001F910F91FF90EF90DF90CF90BF9008959B
:101D30001F93CF93DF9300D0CDB7DEB7182FCE011E
:101D400001960E948D1489819A810E94580363E054
:101D500070E0812F0E941803182F0E945703812FD3
:101D60000F900F90DF91CF911F9108950895CF921A
:101D7000DF92EF92FF920F931F93CF93DF936C014B
:101D80007A018B01C0E0D0E0CE15DF0581F0D801EB
:101D90006D918D01D601ED91FC910190F081E02DC6
:101DA000C6010995892B11F02196EECF7E01C7015E
:101DB000DF91CF911F910F91FF90EF90DF90CF9027
:101DC00008957F928F929F92AF92BF92CF92DF92AF
:101DD000EF92FF920F931F93CF93DF93CDB7DEB7B0
:101DE000A6970FB6F894DEBF0FBECDBF8C01762E3E
:101DF000942E852E20E2B22ECE0101967C01FC01AC
:101E00002B2D11922A95E9F78AE991E09AA389A3EB
:101E10008FEF8BA38CA38DA38EA3680183E4C80EE0
:101E2000D11C43E450E0BE016F5D7F4FC6010E94AC
:101E30005B03019609F4B9C081E089838A8386E057
:101E4000A82EAB821C82F8016481758186819781FE
:101E50000E940A256D837E838F83988789869A8660
:101E600080E890E09C878B874CE150E0B701C60189
:101E70000E94B209F7012B2D11922A95E9F748012A
:101E800088E0880E911CF401D70101900D92AA946C
:101E9000E1F740E150E0B701C6010E94B209F70145
:101EA0001192BA94E9F796E0A92EB12C40E250E0E5
:101EB000B701C6010E94B209F1E0AF1AB108B1F74B
:101EC00083E6898392E89A8393E59B838C8385E3F9
:101ED0008D8381E08E837F829DE3988797E0998749
:101EE0008A8786E0F401DE011B9601900D928A95A7
:101EF000E1F78CE0898B8A8B69E974E0CE01439627
:101F00000E941927F8016385CE0149960E940317A4
:101F1000F8016485CE014B960E940317F801658590
:101F2000CE014D960E9403174EE150E0B701C60165
:101F30000E94B209F3E07F121EC082E3898384E02D
:101F40008A83F80196859B8397859C8390899D83DE
:101F500091899E8396E39F838887828D8987838D6D
:101F60008A87848D8B87858D8C874CE050E0B70104
:101F7000C6010E94B20987E3898386E08A8391E0E3
:101F80009B8393E09C838D838FE08E838AE38F8392
:101F90008BE388878FEF898749E050E0B701C6015E
:101FA0000E94B209C6010E946909A6960FB6F8946C
:101FB000DEBF0FBECDBFDF91CF911F910F91FF907C
:101FC000EF90DF90CF90BF90AF909F908F907F90D9
:101FD00008954F925F926F927F928F929F92AF92ED
:101FE000BF92CF92DF92EF92FF920F931F93CF9306
:101FF000DF93CDB7DEB763970FB6F894DEBF0FBEA1
:10200000CDBF7C015B013A01FB0120E080E090E064
:102010006AE03191332309F140ED430F4A3080F4F7
:10202000689FA001699F500D1124CA01C097830FBA
:10203000911D37FD9A958F3F910559F350F313C0C9
:102040003E3289F4233079F0D301A20FB11D1296EC
:102050008C932F5F80E090E0DCCF233021F4F301FC
:10206000858381E021C0F7014281538164817581BC
:102070008091FB059091FC05A091FD05B091FE05B6
:10208000481759076A077B0709F495C10E94290B75
:102090008701085F1F4F6F7077277C5FC8010E9420
:1020A000A701813019F080E090E0F8C18AE991E061
:1020B0009A838983F70182819381A481B5818B837F
:1020C0009C83AD83BE8345E350E0BE016F5F7F4FCD
:1020D000C8010E945B03892B19F4C12CD12C66C165
:1020E0000E94290BF7017783668376276727762777
:1020F0007A83698342E050E0BE016F5F7F4FC80181
:102100000E94B20981E090E09E878D8742E050E016
:10211000BE01635F7F4FC8010E94B20980E091E079
:102120009E878D8742E050E0BE01635F7F4FC8010C
:102130000E94B2091E861D8642E050E0BE01635F28
:102140007F4FC8010E94B20942E050E0BE01635FC8
:102150007F4FC8010E94B20942E050E0BE01635FB8
:102160007F4FC8010E94B2094501F5018081882393
:1021700001F164015601F60181912F01882321F0BC
:102180008E3211F06201F6CFC818D9081C141D0454
:1021900074F4CF8641E050E0BE01615F7F4FC8011B
:1021A0000E94B209A601B401C8010E94B20942010D
:1021B000DCCF1F8641E050E0BE01615F7F4FC80168
:1021C0000E94B209C12CDD24D394DE86CD8642E084
:1021D00050E0BE01635F7F4FC8010E94B209DE86F6
:1021E000CD8642E050E0BE01635F7F4FC8010E9490
:1021F000B209C8010E946909892B09F46ECFE3E096
:10220000AE2EB12C230122E0420E511C0E94290B5C
:102210003B014C01C8010E94610D18161906A4F07B
:102220000E94290BDC01CB0186199709A809B9097D
:1022300089389341A105B105D0F462E370E080E0F4
:1022400090E00E94EF0AE6CFF7014281538164815A
:102250007581808D918DA28DB38D481759076A07BE
:102260007B0749F4848D958DC59729F409C0CC244A
:10227000CA94DC2C92C05EEFC52EDD24DA948DC0AA
:10228000F70181A192A10C970CF49DC04CE050E0A5
:10229000BE016F5F7F4FC8010E94190D8B819C8129
:1022A0009827892798279A8B898B29813A81322709
:1022B00023273227F701468157812417350709F074
:1022C0007DC097FF7BC08F709270892B09F0E1C0B1
:1022D0006F8078847624672476246114710409F46D
:1022E000D3C0C12CD12C8D819E8198278927982716
:1022F000C816D90608F46CC0812C912C41E050E03E
:10230000BE016D5E7F4FC8010E94190D8B89982F09
:10231000907C09F08FC0811183C042E050E0BE0183
:10232000615F7F4FC8010E94190D42E050E0BE017D
:10233000635F7F4FC8010E94190DC8010E94380DCC
:10234000C8010E94380DC8010E94380DC8010E94C2
:10235000380D42E050E0BE016F5E7F4FC8010E9421
:10236000190D8F8598898115914009F06BC0CD8436
:10237000DE84DC24CD24DC2481E0C816D10409F0FD
:1023800061C089899A898115944009F078C044E038
:1023900050E0B201C8010E94190D81E0A81AB108ED
:1023A00029F0FFEFCF16DF0609F430CFC8010E94F5
:1023B0006D01C60173C08EEF9FEF70C04CEFC42E4D
:1023C000DD24DA94EACF9DEFC92EDD24DA94E5CF3F
:1023D00041E050E0BE01635F7F4FC8010E94190DCC
:1023E0008D85882351F08D859FEF980F9D878823D9
:1023F00021F0C8010E94380DF6CF8D858111E8CFFC
:10240000C8010E94380DC8010E94380DC8010E9401
:10241000380DC8010E94380DFFEFCF1ADF0A63CFD5
:102420008B899FEF980F9B8B882341F0C8010E94F6
:10243000380DF6CFC8010E94380D1B8A8B89811197
:102440005DCF6BCFC12CD12C89899A899827892798
:102450009827C816D90638F4C8010E94380DFFEF36
:10246000CF1ADF0AF1CF2FEF821A920A681479048B
:1024700009F044CF26EFC22EDD24DA948ECF77EF19
:10248000C72EDD24DA9489CF3AEFC32EDD24DA9407
:1024900084CF8BEFC82EDD24DA947FCF63960FB6FE
:1024A000F894DEBF0FBECDBFDF91CF911F910F918A
:1024B000FF90EF90DF90CF90BF90AF909F908F9064
:1024C0007F906F905F904F9008950F931F93CF93DD
:1024D000DF938C01EB01FC0180819181009739F041
:1024E0006881798161157105A1F40E94AF25888109
:1024F0009981F801918380838A819B819383828370
:102500008C819D8195838483198218821B821A8213
:102510000FC0F801428153812C813D81421753073E
:1025200020F30E9419278C819D81F8019583848373
:102530001D821C82DF91CF911F910F9108950F93FF
:102540001F93CF93DF93EC0188819981009729F045
:102550002A813B812617370788F48B016F5F7F4FF5
:102560000E943826009761F0998388831B830A8331
:102570002C813D81232B11F4FC01108281E001C0EC
:1025800080E0DF91CF911F910F910895EF92FF921C
:102590000F931F93CF93DF93EC017B018A01BA0164
:1025A0000E949F122881398181110DC021153105AA
:1025B00019F0C9010E94AF25198218821D821C8260
:1025C0001B821A8206C01D830C83B701C9010E94B9
:1025D0001927CE01DF91CF911F910F91FF90EF90BE
:1025E0000895FC01808191810C94AF25FC0111823A
:1025F000108213821282158214826115710551F0C6
:10260000FB0101900020E9F73197AF01461B570B02
:102610000C94C61208956115710579F0FB010190C3
:102620000020E9F73197AF01461B570BDC01ED9114
:10263000FC910280F381E02D099480E090E0089500
:102640008F929F92AF92BF92EF92FF920F931F9340
:10265000CF93DF93CDB7DEB7A1970FB6F894DEBF67
:102660000FBECDBF7C01FA01CB0119A2223008F4C4
:102670002AE08E010F5D1F4F822E912CA12CB12CD0
:10268000BF01A50194010E94C123F901CA010150B3
:1026900011096A3014F4605D01C0695CD8016C9363
:1026A000232B242B252B61F7B801C7010E940B13A4
:1026B000A1960FB6F894DEBF0FBECDBFDF91CF91CC
:1026C0001F910F91FF90EF90BF90AF909F908F90D0
:1026D0000895CF92DF92EF92FF92CF93DF936B0139
:1026E0007C016DE284E595E00E947108EC014427CD
:1026F0005527BA014C195D096E097F092AE084E566
:1027000095E00E9420138C0F9D1FDF91CF91FF90C9
:10271000EF90DF90CF900895CF93DF93BC0184E5D5
:1027200095E00E940B13EC0163E572E084E595E00F
:102730000E940B138C0F9D1FDF91CF9108958F92F4
:102740009F92AF92BF92CF92DF92EF92FF920F9340
:102750001F93CF93DF936B017C01142F9B01AC017E
:102760000E940525882319F060EA74E027C046011D
:102770005701E894B7F82FEF3FEF4FE75FE7C50148
:10278000B4010E94052581110DC02FEF3FEF4FE7E7
:102790005FE7C501B4010E94312218161CF464EAF7
:1027A00074E00CC02FEF3FEF4FE75FE4C701B601C5
:1027B0000E940025181694F468EA74E084E595E018
:1027C000DF91CF911F910F91FF90EF90DF90CF900D
:1027D000BF90AF909F908F900C940B132FEF3FEF13
:1027E0004FE75FECC701B6010E94312287FDE4CFBD
:1027F00020E030E0A901C701B6010E94312287FF25
:102800000BC06DE284E595E00E947108EC01F7FAD7
:10281000F094F7F8F09402C0C0E0D0E000E060E08F
:1028200070E080E09FE3101741F020E030E040E2EC
:1028300051E40E945F240F5FF6CFA70196010E942A
:10284000F3236B017C010E94D1244B015C012AE03F
:10285000AB01BC0184E595E00E942013C80FD91F8D
:102860001123C9F1C501B4010E9436229B01AC01BC
:10287000C701B6010E94F2236B017C016EE284E580
:1028800095E00E947108C80FD91F20E030E040E2B7
:1028900051E4C701B6010E9497224B015C010E94DE
:1028A000D1246B01E12CF12C2AE0B701A60184E5CB
:1028B00095E00E942013C80FD91FC701B6010E94DE
:1028C00036229B01AC01C501B4010E94F2236B01C9
:1028D0007C011150D1F6CE01DF91CF911F910F9164
:1028E000FF90EF90DF90CF90BF90AF909F908F9030
:1028F0000895BC0184E595E00C940B13AC01990F8D
:10290000660B770B77FF04C0CB01BA010C946913F7
:102910002AE084E595E00C94201320E5FC01208357
:1029200011820895CF93DF93AC01990F660B770B5B
:1029300077FF05C0CB01BA010E94691305C02AE0E8
:1029400084E595E00E942013EC0163E572E084E5E4
:1029500095E00E940B138C0F9D1FDF91CF9108957E
:10296000FB01DC018D919C91009761F06081718188
:102970006115710539F0448155810E94202721E0BD
:10298000892B09F020E0822F08950F931F930E9456
:10299000290B60930D0670930E0680930F0690939B
:1029A000100685E096E00E94FB0197FF1FC00E9481
:1029B000290B00910D0610910E0620910F06309103
:1029C0001006DC01CB01801B910BA20BB30B009115
:1029D000090610910A0620910B0630910C0680170B
:1029E0009107A207B307E8F28FEF9FEF1F910F91B6
:1029F0000895CF93C82F462F61E070E00E940E0328
:102A000061E070E08C2F0E9418038111F9CFCF9103
:102A100008951F93CF93DF9300D0CDB7DEB76CE25C
:102A200071E080E090E00E94EF0A1FB7F894809177
:102A30005206811127C0EEEBF1E08491EAEAF1E061
:102A40009491E82FF0E0EE0FFF1FEA56FE4FA5919C
:102A5000B491EC91E92321F461E08AE00E94840AB8
:102A600061E08AE00E94B30A8CB580618CBD8CB5B0
:102A700080648CBD61E08DE00E94B30A61E08BE070
:102A80000E94B30A809152068F5F809352061FBF47
:102A9000229ACE0101960E948D1489819A810E940A
:102AA000580360E880E090E00E94010C65E58BE14E
:102AB00090E00E94010C65E58AE190E00E94010C23
:102AC0000E94570380E090E490934306809342066F
:102AD00080E090E690934B0680934A0680E098E46D
:102AE000909345068093440680E098E690934D06C7
:102AF00080934C0680E090E59093470680934606CD
:102B000080E090E790934F0680934E0680E098E532
:102B1000909349068093480680E098E79093510689
:102B2000809350060F900F90DF91CF911F910895E1
:102B30001F93CF93DF93CDB7DEB7C454D1090FB63F
:102B4000F894DEBF0FBECDBFFC0182819381A481CA
:102B5000B58123968CAF9DAFAEAFBFAF239711E089
:102B600023961FAF239723964CAD5DAD6EAD7FAD21
:102B700023974BAB5CAB6DAB7EAB8DA79EA7AFA78E
:102B8000B8AB18AB4DA55EA56FA578A94FA358A704
:102B900069A77AA71EAB4BA95CA96DA97EA949A319
:102BA0005AA36BA37CA32AE931E03C8B2B8B4FEF1C
:102BB0004D8B4E8B4F8B188E3E872D871AA74FA1BA
:102BC00058A569A57AA54F87588B698B7A8B1CA36A
:102BD00049A15AA16BA17CA149875A876B877C8741
:102BE0003A8329838B839C83AD83BE830E9409151E
:102BF000CE018D5B9F4F0E948D1425968EAD9FADAB
:102C000025970E94580346E050E062E071E089E0B9
:102C100090E00E94D20BCE0103960E94500344E044
:102C200050E0BE01615F7F4F81E090E00E94D20BD7
:102C300044E050E0BE016B5E7F4F85E090E00E9473
:102C4000D20B0E9457031C8789859A85AB85BC856A
:102C50008093F3059093F405A093F505B093F605E2
:102C6000CC5BDF4F0FB6F894DEBF0FBECDBFDF9158
:102C7000CF911F910895AF92BF92CF92DF92EF92C2
:102C8000FF920F931F93CF93DF9300D0CDB7DEB7A2
:102C90007A836983BA01A901E981FA81F770082F63
:102CA00010E0000F111F065B194FD8018D919C9108
:102CB0008E0F9F1F9F01240F351F21303840A0F039
:102CC0007A015B0160E078E06B01CE1ADF0AA601B1
:102CD000B5010E94A20BA7014C195D09B5016C0D4D
:102CE0007D1DF801808191810F900F90DF91CF9130
:102CF0001F910F91FF90EF90DF90CF90BF90AF901A
:102D00000C94A20B9F92AF92BF92CF92DF92EF9260
:102D1000FF920F931F93CF93DF93982E8B015A014D
:102D2000690164E270E00E941803E82EF12C65E26C
:102D300070E0892D0E941803FE2CEE24E82AE80199
:102D4000CE0DDF1D9E013770E92CF12CC701880FD5
:102D5000991FAC014E5B594F7A01FA018081918134
:102D6000820F931FA9014C0D5D1D4130584090F01A
:102D700000E018E0021B130BA801B5010E94D20B62
:102D8000A601401B510BB501600F711FF701808137
:102D9000918102C0A601B5010E94D20BCC0DDD1DB0
:102DA0004D2F64E270E0892D0E940E034C2F65E2E6
:102DB00070E0892DDF91CF911F910F91FF90EF90DF
:102DC000DF90CF90BF90AF909F900C940E03FF9236
:102DD0000F931F93CF93DF93F82E00E010E08F2D19
:102DE0000E94830BEC01892B21F08F2D0E94830B15
:102DF0008C01C017D10799F7CE01DF91CF911F91B8
:102E00000F91FF90089520E3FC0120833296862FD6
:102E100082958F7090E1899F601911246A3014F4B3
:102E2000605D01C0695C6293682F8111F0CF0895E5
:102E3000EF92FF920F931F93CF93DF9300D0CDB704
:102E4000DEB78C0165E572E00E94F6120E94C5149F
:102E500097FD1EC089831A82F801E480F580FFEF98
:102E6000EF1AFF0AB701C8010E949F12882371F36D
:102E7000F8012081318184819581BE016F5F7F4F90
:102E8000820F931F0E941927F801F582E482DECF9A
:102E9000C8010F900F90DF91CF911F910F91FF907C
:102EA000EF9008952F923F924F925F926F927F9290
:102EB0008F929F92AF92BF92CF92DF92EF92FF924A
:102EC0000F931F93CF93DF93CDB7DEB7E2970FB683
:102ED000F894DEBF0FBECDBF7C012A013B01690122
:102EE0000E94290B4B015C0187010D5B1F4FC8013C
:102EF0000E94610D18161906A4F00E94290BDC012E
:102F0000CB0188199909AA09BB09481659066A060E
:102F10007B06D8F062E370E080E090E00E94EF0A68
:102F2000E6CF42E250E0BE016F5F7F4FC8010E94D2
:102F3000190D8981823011F080E060C1F801848927
:102F4000958983349105C1F702C08FEF57C16D8118
:102F50007E818F8198850E940A254B015C01F601D4
:102F6000608371838283938346E050E0B701685F9A
:102F70007F4FCE014D960E940327892BE9F6F7017A
:102F800080819181A281B38188169906AA06BB0629
:102F900098F284819581A681B78188159905AA0543
:102FA000BB0550F289899A89AB89BC898687978746
:102FB000A08BB18B8EECC82ED12CC8010E94380D8D
:102FC000F1E0CF1AD108C9F7712CC70182969AA7F0
:102FD00089A7F701B696FCA7EBA708969EA78DA731
:102FE0003C974F01899698AB8FA73897FAABE9AB1E
:102FF0001701F6E12F0E311C27018EE1480E511CFE
:10300000F801818D928D181619060CF0F6C0C801D2
:103010000E94380D8333910509F4C9C0F4F481305E
:103020009105B9F11CF4892B59F3DBC0833091056C
:10303000C1F1069709F0D5C0C8010E94380D6C0196
:1030400044E050E0B201C8010E94190DA12CB12C3E
:10305000DD2494E0C91AD1083FC08A33910509F4F0
:103060007AC03CF48533910561F0C69709F43FC0FE
:10307000B8C08B33910509F484C08F3F910501F2EC
:10308000B0C0C8010E94380DC8010E94380D782ECA
:10309000B7CFC8010E94380D44E050E069A97AA971
:1030A0003AC0C8010E94380D6C0144E050E0B10103
:1030B000C8010E94190DA12CB12CDD24F4E0CF1A17
:1030C000D108AC14BD040CF09BCFC8010E94380D90
:1030D0008FEFA81AB80AF5CFAC14BD040CF090CF4E
:1030E000C8010E94380DEFEFAE1ABE0AF5CFC80135
:1030F0000E94380D682EF701828D811110C0838DDA
:1031000081110DC0848D81110AC0858D811107C088
:1031100044E050E0B401C8010E94190D71CFEFA541
:10312000F8A9A080B180C280D380B401CE0183967B
:103130000E94F7098DA19EA1AFA1B8A5A816B90656
:10314000CA06DB0629F3662009F45ACFC8010E949B
:10315000380D6A94F8CFC8010E94380D44E050E061
:103160006BA57CA5C8010E94190DF70166A177A186
:1031700080A591A50E940A2566A377A380A791A7A1
:103180003FCFC8010E94380D44E050E06DA57EA5F8
:10319000C8010E94190DF70162A573A584A595A524
:1031A0000E940A2562A773A784A795A729CFC80103
:1031B0000E94380D44E050E069A57AA5C8010E943C
:1031C000190DF70162A173A184A195A10E940A259E
:1031D00062A373A384A395A366A777A780AB91ABE3
:1031E0000FCFC8010E94380DD82EDD2009F408CF7A
:1031F000C8010E94380DDA94F8CF872DE2960FB6F9
:10320000F894DEBF0FBECDBFDF91CF911F910F911C
:10321000FF90EF90DF90CF90BF90AF909F908F90F6
:103220007F906F905F904F903F902F9008958FEF19
:1032300095E00C94F112CF93DF93CDB7DEB7619791
:103240000FB6F894DEBF0FBECDBF789484B5826010
:1032500084BD84B5816084BD85B5826085BD85B53A
:10326000816085BD80916E00816080936E001092B8
:103270008100809181008260809381008091810033
:1032800081608093810080918000816080938000C4
:103290008091B10084608093B1008091B000816022
:1032A0008093B00080917A00846080937A0080914E
:1032B0007A00826080937A0080917A0081608093A6
:1032C0007A0080917A00806880937A001092C10021
:1032D000E0916405F091650582E08083E0916005EE
:1032E000F09161051082E0916205F09163058FEC29
:1032F000808310926C05E0916805F091690586E085
:103300008083E0916605F09167058081806180830C
:10331000E0916605F0916705808188608083E09187
:103320006605F0916705808180688083E09166057D
:10333000F091670580818F7D808361E08DE00E9440
:10334000B30A60E087E00E94B30A60E088E00E9470
:10335000B30A61E083E00E94B30A61E085E00E9465
:10336000B30A61E086E00E94B30A809128058111CA
:1033700007C08DE095E00E941E0281E08093280541
:103380008AEC94E09093F8058093F7050E94091564
:10339000CE0101962C010E948D1489819A810E9490
:1033A000580346E050E062E071E089E090E00E945E
:1033B000D20B8AE991E09A8389831B821C821D8249
:1033C0001E82CE0103960E9450030E945703009173
:1033D000F7051091F805D80192961D921D921D9245
:1033E0001C929597F80116A217A210A611A69A96FC
:1033F0001D921D921D921C929D9780E69AEEA0E070
:10340000B0E086AB97ABA0AFB1AF80EA9FE0A0E0A1
:10341000B0E082AF93AFA4AFB5AF3E9684E1DF01D9
:103420001D928A95E9F786E0E2E0F1E0D80118966E
:1034300001900D928A95E1F73801B2E46B0E711C90
:10344000F30110820E949F1F2FEC37E040E050E014
:103450000E945823DC01CB010196A11DB11DF8018A
:1034600084839583A683B78380839183A283B38368
:10347000C8018D5B9F4F998B888B0E946D0164E41E
:1034800070E0888999890E94A701811118C084E29F
:1034900093E00E948C138AE991E09A83898380915A
:1034A000140690911506A0911606B09117068B830D
:1034B0009C83AD83BE83C2010E94981506C20E9400
:1034C000290B4B015C01212C312C48EEC42E43E02A
:1034D000D42EE12CF12CD3018C91833009F4FEC061
:1034E00081111FC0F80184819581A681B781019661
:1034F000A11DB11D84839583A683B7830E94290BE8
:10350000681979098A099B09A70196010E94C123BC
:10351000A90161E0C8010E94E10E81E0D3018C9312
:10352000C5C08430E9F4F80184819581A681B78112
:103530000196A11DB11D84839583A683B7830E9444
:10354000290B681979098A099B09A70196010E942C
:10355000C123A90163E0C8010E94E10EE2E02AC094
:10356000813059F5D801DA964D915D916D917C913C
:10357000DD979201C8010E9452178F87823009F0AF
:1035800090C089819A81AB81BC81F8018483958345
:10359000A683B7830E94290B681979098A099B09B8
:1035A000A70196010E94C123A90163E0C8010E94FE
:1035B000E10EEF85D301EC9379C0823009F076C03B
:1035C000D801DA964D915D916D917C91DD979201D4
:1035D000C8010E9452178F87853009F05CC083E0D4
:1035E000F3018083F80182A193A1A4A1B5A1892B45
:1035F0008A2B8B2B41F484E893E0A0E0B0E082A317
:1036000093A3A4A3B5A3F80186A197A1A0A5B1A5F2
:10361000892B8A2B8B2B61F482A193A1A4A1B5A144
:10362000B695A7959795879586A397A3A0A7B1A7C9
:10363000F80182A593A5A4A5B5A5892B8A2B8B2B70
:10364000A9F482A193A1A4A1B5A1AC01BD0123E07D
:1036500076956795579547952A95D1F7841B950BD5
:10366000A60BB70B82A793A7A4A7B5A7F80186A1BD
:1036700097A1A0A5B1A586A797A7A0ABB1AB82A53E
:1036800093A5A4A5B5A582AB93ABA4ABB5AB2224FF
:103690002394312C0BC0FF85F63019F4D3011C9212
:1036A00005C0BF85BF3F11F4F3011082F1E02F1672
:1036B000310409F410CF0E94290BDC01CB018819D9
:1036C0009909AA09BB09F80126A937A940AD51AD4E
:1036D000281739074A075B0708F0FDCE88899989C2
:1036E0000E946D01F80184819581A681B7810196C0
:1036F000A11DB11D84839583A683B7830E94290BE6
:10370000F801FE966083718382839383F1E02F1624
:10371000310409F050C0C2010E948D1489819A8140
:103720000E9458036091F7057091F805625F7F4F22
:10373000C2010E94F709CE0103960E9450036091D6
:10374000F7057091F8056A5E7F4FC2010E94F70984
:1037500044E050E0BE016D5F7F4F81E090E00E9449
:10376000D20B6091F7057091F8056E5E7F4FC20134
:103770000E94F70944E050E0BE016D5F7F4F85E095
:1037800090E00E94D20B0E9457036091F705709160
:10379000F805625E7F4FC2010E94F7098B819C8110
:1037A000AD81BE818093F3059093F405A093F50558
:1037B000B093F60503C0232809F469CE8BE593E0A6
:1037C0000E9479140AE911E01A8309831B821C8282
:1037D0001D821E82CE0107960E948D148F819885CE
:1037E0000E94580344E050E0BE016D5F7F4F8FE0C0
:1037F00090E00E94A20B0E94570364E575E0C201AD
:103800000E94BE0763E572E084E595E00E940B1319
:103810001A83098380911A0690911B06A0911C06B9
:10382000B0911D068B839C83AD83BE834AE25BE22D
:10383000B20185E096E00E947504892BC1F085E60F
:1038400093E00E948C1385E096E00E941502892B7C
:10385000D1F385E096E00E9483018823B1F185E0F1
:1038600096E00E941502892B09F055C12EC08AEE00
:1038700093E00E948C1385E090E09093C5048093C0
:10388000C4049093C7048093C6048AE090E09093A8
:10389000C9048093C80480E090E0A0E0BFE3809377
:1038A000C0049093C104A093C204B093C30480E009
:1038B00090E0A0EBB0E48093BC049093BD04A0938F
:1038C000BE04B093BF040E940D0585E294E00E94FF
:1038D0008C133E019DE0690E711C84ECE82E84E09F
:1038E000F82E96ECC92E94E0D92E28ECA22E24E0D6
:1038F000B22E34E5832E34E0932E85E096E00E94CC
:103900008301882309F4E2C085E096E00E94150255
:10391000892B09F4DFC0C2010E941817B2018FEF92
:1039200095E00E946512C2010E94F11284E394E0C6
:103930000E948C1340910306509104066091FF058C
:103940007091000684E595E00E94B70E63E572E091
:1039500084E595E00E940B1318861F821A8619864B
:103960001C861B866091FF0570910006611571052C
:1039700041F04091030650910406CE0107960E9443
:10398000C61266E374E0C2010E94F6122B853C85E4
:103990008D819E812817390738F0B201CE01079634
:1039A0000E94B014182F01C010E0C2010E94F11251
:1039B000112321F08AE394E00E948C136FE474E0F9
:1039C000C2010E94F6122B853C858D819E812817AD
:1039D000390738F0B201CE0107960E94B014182FB3
:1039E00001C010E0C2010E94F112112309F469C064
:1039F0000B851C850115110519F41092300510C0B6
:103A00000D31110510F00DE110E06F817885A801EE
:103A100080E395E00E942E27F801E05DFA4F1082C6
:103A200080E395E00E948C135F924F927F926F9299
:103A3000FF92EF92DF92CF92BF92AF929F928F92BE
:103A400080E395E09F938F930E943D276D857E854F
:103A5000072E000C880B990B0E9438222AE037EDC4
:103A600043E25CE30E9497226093C0047093C10418
:103A70008093C2049093C30469817A81072E000C5D
:103A8000880B990B0E9438222AE037ED43E25CE371
:103A90000E9497226093BC047093BD048093BE047F
:103AA0009093BF040E940D0588E694E00E948C1359
:103AB00084E595E00E94BE080FB6F894DEBF0FBE05
:103AC000CDBFCE0107960E94F11222C08AE894E091
:103AD0000E948C1325E030E043E050E066E070E0A7
:103AE0008091C8049091C9040E94DB0523E030E076
:103AF00046E050E065E070E08091C6049091C70414
:103B00000E94DB058091C4049091C5040E945B056E
:103B10000E94E008F2CE18861F821A8619861C863B
:103B20001B866091FF05709100066115710541F0DB
:103B30004091030650910406CE0107960E94C612DA
:103B4000C2010E941817B201CE0107960E946512A9
:103B5000C2010E94F11260E773E0C2010E94F612F6
:103B60002B853C858D819E812817390738F0B2015D
:103B7000CE0107960E94B014182F01C010E0C201B8
:103B80000E94F112112309F471C00B851C850115E7
:103B9000110519F41092300510C00D31110510F007
:103BA0000DE110E06F817885A80180E395E00E9427
:103BB0002E27F801E05DFA4F108280E395E00E9425
:103BC0008C135F924F92CE010D969F938F9384EC4E
:103BD00094E09F938F9386EC94E09F938F9388EC6F
:103BE00094E09F938F9384E793E09F938F9380E378
:103BF00095E09F938F930E943D276D857E85072ECC
:103C0000000C880B990B0E9438222AE037ED43E222
:103C10005CE30E9497226093C0047093C104809378
:103C2000C2049093C30469817A81072E000C880B2B
:103C3000990B0E9438222AE037ED43E25CE30E94B0
:103C400097226093BC047093BD048093BE0490934C
:103C5000BF040E940D0584E595E00E94BE080FB6E2
:103C6000F894DEBF0FBECDBF11E02FC087E893E010
:103C70000E948C1385E090E09093C5048093C40467
:103C80009093C7048093C6048AE090E09093C9049F
:103C90008093C80480E090E0A0E0BFE38093C0047C
:103CA0009093C104A093C204B093C30480E090E059
:103CB000A0EBB0E48093BC049093BD04A093BE0439
:103CC000B093BF040E940D0510E0CE0107960E943C
:103CD000F112112329F08AEB93E00E948C13F5CDA9
:103CE0008AEE93E00E948C1385E090E09093C504E7
:103CF0008093C4049093C7048093C6048AE090E044
:103D00009093C9048093C80480E090E0A0E0BFE3F2
:103D10008093C0049093C104A093C204B093C304E1
:103D200080E090E0A0EBB0E48093BC049093BD04ED
:103D3000A093BE04B093BF04C8CDE4E5F5E01382C0
:103D4000128248EE53E060E070E04483558366835E
:103D5000778384E491E09183808385EC90E095877C
:103D6000848784EC90E09787868780EC90E0918B45
:103D7000808B81EC90E0938B828B82EC90E0958B32
:103D8000848B86EC90E0978B868B118E128E138E2F
:103D9000148EEEE1F6E08AE991E09183808312824D
:103DA000138214821582E4E2F6E09183808312820A
:103DB000138214821582EAE2F6E0918380831282F4
:103DC000138214821582E0E3F6E0918380831282ED
:103DD000138214821582E1EFF5E0918380831282D1
:103DE000138214821582E9EFF5E0918380831282B9
:103DF000138214821582E6E3F6E0918380831282B7
:103E0000138214821582ECE3F6E0918380831282A0
:103E1000138214821582E8E1F6E091838083A0EC9E
:103E2000A28338EA338321E02483BEE8B583E2E14C
:103E3000F6E091838083A2833383248386E985839C
:103E4000E5E0F6E01382128244835583668377832C
:103E500084E791E09183808384E0848765E572E064
:103E60008FEF95E00C94F612EF920F931F93CF9380
:103E7000DF93E80147FD02C034E001C034E1042EC5
:103E8000000C550B57FF03C0519541955109E32E86
:103E9000022F242FAE010E94F61FCE01DF91CF9199
:103EA0001F910F91EF9008958F929F92AF92BF92C2
:103EB000CF92DF92EF92FF92CF93DF93EC01688174
:103EC00079818A819B81611571058105910521F4B4
:103ED00064E279ED8BE597E02DE133EF41E050E0CE
:103EE0000E94582349015A019B01AC01A7EAB1E4A1
:103EF0000E9477236B017C01ACEEB4EFA501940125
:103F00000E948523DC01CB018C0D9D1DAE1DBF1DC4
:103F1000B7FF03C00197A109B04888839983AA839A
:103F2000BB83BC01CD019F77DF91CF91FF90EF90D4
:103F3000DF90CF90BF90AF909F908F9008958F9219
:103F40009F92AF92BF92CF92DF92EF92FF926091D9
:103F500008017091090180910A0190910B0161158E
:103F600071058105910521F464E279ED8BE597E017
:103F70002DE133EF41E050E00E94582349015A01FE
:103F80009B01AC01A7EAB1E40E9477236B017C019D
:103F9000ACEEB4EFA50194010E948523DC01CB01B6
:103FA0008C0D9D1DAE1DBF1DB7FF03C00197A1095C
:103FB000B0488093080190930901A0930A01B0933F
:103FC0000B01BC01CD019F77FF90EF90DF90CF9068
:103FD000BF90AF909F908F90089560930801709369
:103FE000090180930A0190930B010895A9E0B0E0C4
:103FF000ECEFFFE10C9490236A01122FB02E2BE31B
:10400000201720F0FF24F394F00E02C02CE3F22ED0
:104010000F2D27E0AE014F5F5F4F0E945021BC0182
:104020004981842F8970813031F0E1FC06C0E0FEC7
:1040300006C090E205C09DE203C09BE201C090E093
:104040005E2D507143FF3CC0911102C083E001C05E
:1040500084E0811718F4212F281B01C020E05111A2
:104060000BC0F601822F30E2882319F03193815082
:10407000FBCFC20ED11C20E0992329F0D6019C93DE
:10408000F60131966F01C6010396E2FE0AC03EE4D6
:10409000D6013C9341E411964C93119712963C93B0
:1040A00006C03EE6F601308341E641833283FC01DF
:1040B000322F40E2332309F442C041933150FACF0A
:1040C00042FF44C0911102C083E001C084E0811727
:1040D00018F4212F281B01C020E051110BC0F6015C
:1040E000822F30E2882319F031938150FBCFC20E2A
:1040F000D11C20E0992329F0D6019C93F60131963A
:104100006F01C6010396E2FE0BC039E4D6013C9371
:104110003EE411963C93119736E412963C9307C007
:1041200039E6F60130833EE6318336E63283FC0120
:10413000322F40E2332319F041933150FBCFFC0181
:10414000E20FF11D10828EEF9FEFA6C021E030E05C
:10415000911102C020E030E0161617061CF4FB0196
:10416000319602C0E1E0F0E02E0F3F1FBB2021F0AE
:10417000EB2DF0E0319602C0E0E0F0E02E0F3F1FA3
:10418000E12FF0E02E173F071CF4121B212F01C076
:1041900020E08E2D887159F4F601822F30E28823B9
:1041A00019F031938150FBCFC20ED11C20E099232E
:1041B00029F0D6019C93F60131966F0151110BC085
:1041C000F601822F90E3882319F091938150FBCF61
:1041D000C20ED11C20E00F2D060F9A81342F3071B2
:1041E00044FF03C0913309F40150101624F4093040
:1041F00018F008E001C001E0AB0177FF02C040E029
:1042000050E0FB01E41BF50BA1E0B0E0AC0FBD1FDB
:10421000EA0FFB1F8EE2A82E4B01801A91080B2D8E
:1042200010E01195019511094F3FBFEF5B0721F495
:10423000D601AC9211966D01641775072CF08416A7
:10424000950614F4818101C080E3415051093196F3
:10425000D60111967D014017510724F0D6018C93A9
:104260006701E2CF6417750739F4963320F495336C
:1042700019F4311101C081E3F6018083F701822F27
:1042800090E2882319F091938150FBCFF701E20F60
:10429000F11D108280E090E02996ECE00C94AC23B4
:1042A000283008F027E03327DA01990F311D87FD08
:1042B000916000966105710539F432602E5F3D937F
:1042C00030E32A95E1F708959F3F30F0803871057B
:1042D000610509F03C5F3C5F3D93913008F08068D8
:1042E000911DDF93CF931F930F93FF92EF92192F9E
:1042F000987F9695E92F96959695E90FFF27EE53AF
:10430000FF4F99273327EE24FF24A701E7010590EB
:104310000894079428F4360FE71EF81E491F511D14
:10432000660F771F881F991F0694A1F705900794C1
:1043300028F4E70EF81E491F561FC11D770F881F6E
:10434000991F661F0694A1F70590079428F4F80EAC
:10435000491F561FC71FD11D880F991F661F771F42
:104360000694A1F70590079420F4490F561FC71F24
:10437000D81F990F661F771F881F0694A9F784918D
:104380001095177041F0D695C79557954795F794B6
:10439000E7941A95C1F7E8E6F0E068941590159156
:1043A00035916591959105907FE27395E118F10A39
:1043B000430B560BC90BD009C0F7E10CF11E431F8C
:1043C000561FC91FD01D7EF4703311F48A95E6CFB5
:1043D000E894015030F0080F0AF40027021708F49F
:1043E000202F2395022F7A3328F079E37D932A95A5
:1043F000E9F710C07D932A9589F6069497956795FD
:10440000379517951794E118F10A430B560BC90B12
:10441000D00998F023957E9173957A3308F070E374
:104420007C932013B8F77E9170617D9330F0839573
:1044300071E37D9370E32A95E1F71124EF90FF90EB
:104440000F911F91CF91DF91992787FD9095089546
:1044500091110C940423803219F089508550C8F7CB
:1044600008950E94732208F481E00895E89409C039
:1044700097FB3EF490958095709561957F4F8F4F97
:104480009F4F9923A9F0F92F96E9BB279395F695AD
:10449000879577956795B795F111F8CFFAF4BB0F2B
:1044A00011F460FF1BC06F5F7F4F8F4F9F4F16C08F
:1044B000882311F096E911C0772321F09EE8872F19
:1044C000762F05C0662371F096E8862F70E060E0D5
:1044D0002AF09A95660F771F881FDAF7880F96954E
:1044E000879597F90895990F0008550FAA0BE0E8F2
:1044F000FEEF16161706E807F907C0F012161306A6
:10450000E407F50798F0621B730B840B950B39F4E5
:104510000A2661F0232B242B252B21F408950A264B
:1045200009F4A140A6958FEF811D811D08950E9479
:10453000AA220C941E230E94102338F00E941723F5
:1045400020F0952311F00C9407230C940D231124D3
:104550000C9452230E942F2370F3959FC1F3950F63
:1045600050E0551F629FF001729FBB27F00DB11DF7
:10457000639FAA27F00DB11DAA1F649F6627B00D87
:10458000A11D661F829F2227B00DA11D621F739F70
:10459000B00DA11D621F839FA00D611D221F749F7E
:1045A0003327A00D611D231F849F600D211D822FC5
:1045B000762F6A2F11249F5750409AF0F1F08823EC
:1045C0004AF0EE0FFF1FBB1F661F771F881F915019
:1045D0005040A9F79E3F510580F00C9407230C949E
:1045E00052235F3FE4F3983ED4F386957795679521
:1045F000B795F795E7959F5FC1F7FE2B880F911D43
:104600009695879597F9089599278827089597F99A
:104610009F6780E870E060E008959FEF80EC089568
:1046200000240A9416161706180609060895002491
:104630000A9412161306140605060895092E03940B
:10464000000C11F4882352F0BB0F40F4BF2B11F47F
:1046500060FF04C06F5F7F4F8F4F9F4F089557FDDE
:104660009058440F551F59F05F3F71F04795880FE0
:1046700097FB991F61F09F3F79F087950895121677
:1046800013061406551FF2CF4695F1DF08C0161623
:1046900017061806991FF1CF8695710561050894D4
:1046A0000895E894BB2766277727CB0197F90895EB
:1046B000052E97FB1EF400940E946F2357FD07D030
:1046C0000E94C12307FC03D04EF40C946F23509535
:1046D0004095309521953F4F4F4F5F4F08959095EE
:1046E0008095709561957F4F8F4F9F4F08950E94E1
:1046F000E323A59F900DB49F900DA49F800D911D65
:1047000011240895B7FF0C9477230E947723821B0E
:10471000930B08952F923F924F925F926F927F92E8
:104720008F929F92AF92BF92CF92DF92EF92FF92C1
:104730000F931F93CF93DF93CDB7DEB7CA1BDB0B6D
:104740000FB6F894DEBF0FBECDBF09942A88398812
:1047500048885F846E847D848C849B84AA84B98419
:10476000C884DF80EE80FD800C811B81AA81B98125
:10477000CE0FD11D0FB6F894DEBF0FBECDBFED0139
:104780000895A1E21A2EAA1BBB1BFD010DC0AA1F92
:10479000BB1FEE1FFF1FA217B307E407F50720F0AA
:1047A000A21BB30BE40BF50B661F771F881F991F25
:1047B0001A9469F760957095809590959B01AC016E
:1047C000BD01CF010895A29FB001B39FC001A39F77
:1047D000700D811D1124911DB29F700D811D11243A
:1047E000911D08955058BB27AA270E940A240C94B3
:1047F0001E230E94102338F00E94172320F039F462
:104800009F3F19F426F40C940D230EF4E095E7FB7A
:104810000C940723E92F0E942F2358F3BA1762073D
:1048200073078407950720F079F4A6F50C945123BB
:104830000EF4E0950B2EBA2FA02D0B01B9019001BB
:104840000C01CA01A0011124FF27591B99F0593FFF
:1048500050F4503E68F11A16F040A22F232F342F47
:104860004427585FF3CF469537952795A795F04095
:104870005395C9F77EF41F16BA0B620B730B840BAA
:10488000BAF09150A1F0FF0FBB1F661F771F881F62
:10489000C2F70EC0BA0F621F731F841F48F48795BA
:1048A00077956795B795F7959E3F08F0B0CF9395AC
:1048B000880F08F09927EE0F9795879508950E9425
:1048C00073240C941E230E94172358F00E94102377
:1048D00040F029F45F3F29F00C94072351110C9408
:1048E00052230C940D230E942F2368F39923B1F3D4
:1048F000552391F3951B550BBB27AA276217730706
:10490000840738F09F5F5F4F220F331F441FAA1F99
:10491000A9F335D00E2E3AF0E0E832D09150504055
:10492000E695001CCAF72BD0FE2F29D0660F771F03
:10493000881FBB1F261737074807AB07B0E809F0E9
:10494000BB0B802DBF01FF2793585F4F3AF09E3F6E
:10495000510578F00C9407230C9452235F3FE4F345
:10496000983ED4F3869577956795B795F7959F5FB1
:10497000C9F7880F911D9695879597F90895E1E0FD
:10498000660F771F881FBB1F621773078407BA075C
:1049900020F0621B730B840BBA0BEE1F88F7E095B7
:1049A00008950E94372388F09F5798F0B92F9927D0
:1049B000B751B0F0E1F0660F771F881F991F1AF00A
:1049C000BA95C9F714C0B13091F00E945123B1E0FB
:1049D00008950C945123672F782F8827B85F39F0FA
:1049E000B93FCCF3869577956795B395D9F73EF4A3
:1049F00090958095709561957F4F8F4F9F4F08954B
:104A00000E94732208F48FEF08950E947322880B8E
:104A1000990B08956927962769277827872778278C
:104A20000895EE0FFF1F0590F491E02D09940F9368
:104A30001F93CF93DF938230910510F482E090E0D2
:104A4000E0915506F091560620E030E0A0E0B0E09D
:104A5000309719F14081518102811381481759071C
:104A6000C8F08417950769F4109731F012960C93EB
:104A7000129713961C9327C0009355061093560661
:104A800022C02115310519F04217530718F49A0175
:104A9000BD01EF01DF01F801DBCF21153105F9F090
:104AA000281B390B2430310580F48A819B816115E4
:104AB000710521F0FB019383828304C09093560615
:104AC00080935506FE01329644C0FE01E20FF31FAB
:104AD0008193919322503109398328833AC02091E0
:104AE000530630915406232B41F420910E0130914E
:104AF0000F01309354062093530620910C013091FE
:104B00000D012115310541F42DB73EB7409110013B
:104B100050911101241B350BE0915306F09154067E
:104B2000E217F307A0F42E1B3F0B2817390778F084
:104B3000AC014E5F5F4F2417350748F04E0F5F1FE3
:104B400050935406409353068193919302C0E0E042
:104B5000F0E0CF01DF91CF911F910F910895CF9396
:104B6000DF93009709F481C0FC013297138212820F
:104B7000A0915506B0915606109781F4208131819D
:104B8000820F931F2091530630915406281739073E
:104B900051F5F0935406E093530667C0ED0120E011
:104BA00030E0CE17DF0740F44A815B819E0141155A
:104BB0005105F1F0EA01F5CFD383C28340815181E1
:104BC000840F951FC817D90759F488819981840FDC
:104BD000951F0296918380838A819B819383828330
:104BE0002115310529F4F0935606E09355063DC092
:104BF000E901FB83EA8349915991C40FD51FEC1752
:104C0000FD0761F480819181840F951F0296E9016F
:104C100099838883828193819B838A83E0E0F0E09B
:104C200012968D919C911397009719F0FD01DC016C
:104C3000F7CF8D919C9111979D012E5F3F4F820F71
:104C4000931F20915306309154062817390769F4B1
:104C5000309729F4109256061092550602C013821E
:104C60001282B0935406A0935306DF91CF9108951A
:104C7000A0E0B0E0EEE3F6E20C948E23EC010097A6
:104C800021F4CB010E941725B4C0FC01E60FF71FE9
:104C90009C0122503109E217F30708F4A8C0D9019A
:104CA0000D911C91119706171707B0F005301105EB
:104CB00008F49BC0C80104978617970708F495C0AD
:104CC00002501109061B170B019311936D937C93EE
:104CD000CF010E94AF2589C05B01A01AB10A4C0127
:104CE000800E911EA0915506B0915606612C712C34
:104CF000E12CF12C109709F446C08D919C911197ED
:104D0000A815B905B1F56C0142E0C40ED11CCA1456
:104D1000DB0478F14C018A189B08640142E0C40E60
:104D2000D11C1296BC9012971396AC91B5E0CB169D
:104D3000D10440F0B282A38391828082D9016D9325
:104D40007C9309C00E5F1F4F800F911FF901918363
:104D50008083EB2DFA2FE114F10431F0D701139683
:104D6000FC93EE93129741C0F0935606E0935506DC
:104D70003CC06816790608F43C017D0112960D903E
:104D8000BC91A02DB7CF8091530690915406881600
:104D90009906E1F466167706C8F480910C019091AB
:104DA0000D01009741F48DB79EB7409110015091CD
:104DB0001101841B950BE817F907C8F4F09354060A
:104DC000E0935306F901718360830FC0CB010E9409
:104DD00017257C01009759F0A801BE010E941027F9
:104DE000CE010E94AF25C70104C0CE0102C080E001
:104DF00090E0CDB7DEB7EEE00C94AA2381E090E01E
:104E0000F8940C94652AFB01DC0104C08D9101909B
:104E1000801921F441505040C8F7881B990B089520
:104E2000FB01DC0102C001900D9241505040D8F7C7
:104E30000895FB01DC0101900D920020E1F7089537
:104E4000FB01DC014150504030F08D910190801900
:104E500019F40020B9F7881B990B0895FB01DC01B8
:104E60004150504048F001900D920020C9F701C018
:104E70001D9241505040E0F70895AEE0B0E0E3E409
:104E8000F7E20C949A2385E08C838B899C899A8322
:104E90008983AE01495E5F4F6D897E89CE0101969F
:104EA0000E94F2282E96E2E00C94B62320FD09C061
:104EB000FC0123FD05C022FF02C07383628351837E
:104EC0004083089544FD17C046FD17C0AB01BC01E7
:104ED000DA01FB01AA0FBB1FEE1FFF1F1094D1F7D1
:104EE0004A0F5B1F6E1F7F1FCB01BA01660F771F32
:104EF000881F991F09C033E001C034E0660F771F97
:104F0000881F991F3150D1F7620F711D811D911DAE
:104F100008950F931F93CF93DF938C01C8010E94D4
:104F20000E2AEC0197FD08C00E942822892BB1F7B8
:104F3000B801CE010E944C2ACE01DF91CF911F9182
:104F40000F9108958F929F92AF92BF92EF92FF922E
:104F50000F931F93CF93DF938C01D62F7A01B22E3C
:104F60000E940E2A9C0133272B32310531F02D325D
:104F7000310561F48B2D8068B82ED15011F480E09A
:104F800068C0C8010E940E2A97FDF9CFCB2DCD7FB6
:104F90002B2D207309F58033F9F4AA24AA94AD0EC1
:104FA00009F443C0C8010E940E2A97FD3EC09C012F
:104FB0002F7D33272835310549F4C264D250A9F139
:104FC000C8010E940E2A97FF07C02FC0B6FE02C07C
:104FD000C26001C0C261DA2D812C912C540120EDF8
:104FE000280F283080F0C4FF04C0B8010E944C2A6A
:104FF00019C02A3040F0C6FFF8CF2F7D3FEE320FA8
:10500000363098F727504C2FC501B4010E94622713
:105010004B015C01C260D15059F0C8010E940E2AB8
:1050200097FFDDCFC1FD04C0AACF812C912C540184
:10503000C7FF08C0B094A09490948094811C911CE8
:10504000A11CB11C2C2FB501A401C7010E94562739
:1050500081E0DF91CF911F910F91FF90EF90BF9072
:10506000AF909F908F900895A0E2B0E0EAE3F8E25D
:105070000C948D235C01962E7A01F9018E010F5F4D
:105080001F4F680180E2D8011D928A95E9F7D5018A
:1050900013968C9080E090E0612C712C30E061E000
:1050A00070E083FC259183FE21918F01522E211106
:1050B00003C080E090E092C02E3511F4009751F1CA
:1050C000432F50E0481759073CF42D3559F12D3244
:1050D00019F4772009F103C0772009F46AC0452D3F
:1050E000469546954695D601A40FB11D452D4770AE
:1050F0008B0102C0000F111F4A95E2F7A8015C91D5
:10510000452B4C93651459F0561410F45394E7CF83
:105110005A94E5CF31E004C07724739401C0712C18
:105120000196BFCF772019F08E8180628E83311176
:1051300003C08824839417C0F6019E012F5D3F4F62
:105140008081809581932E173F07D1F7F2CFE1142C
:10515000F10429F0D7018C93F70131967F019A94DD
:10516000812C9920F9F0C5010E940E2A97FD18C0E4
:10517000FC01FF2723E0F595E7952A95E1F7EC0D73
:10518000FD1D208130E0AC014770552702C03595E8
:1051900027954A95E2F720FDDACFB5010E944C2A07
:1051A000811087CFE114F10411F0D7011C92C801DE
:1051B00015C0422F469546954695D601A40FB11DC0
:1051C000422F47708B0102C0000F111F4A95E2F772
:1051D000A8015C91452B4C93622EA2CFA096EFE0E4
:1051E0000C94A923A0E0B0E0E8EFF8E20C948D2342
:1051F0006C01EB015A01FC0117821682512CF60159
:10520000E380FE01E3FC8591E3FE8191182FEF011D
:10521000882309F4EEC090E00E942822892B21F017
:10522000C6010E948927EBCF153241F4FE01E3FC51
:105230001591E3FE1191EF01153281F4C6010E9430
:105240000E2A97FDD4C0412F50E09C01332724172C
:105250003507A9F2B6010E944C2ACBC01A3239F4A4
:10526000E3FC1591E3FE1191EF0101E001C000E0C4
:10527000F12C20ED210F2A3080F402606F2D70E0B8
:1052800080E090E040E20E946227F62EFE01E3FCFF
:105290001591E3FE1191EF01ECCF01FF03C0F11076
:1052A00003C0A7C0FF24FA94183619F01C3651F039
:1052B00010C0FE01E3FC1591E3FE1191EF011836D9
:1052C00041F408600460FE01E3FC1591E3FE1191D6
:1052D000EF01112309F48DC0612F70E082E691E0A7
:1052E0000E94032A892B09F484C000FD07C0F50140
:1052F00080809180C50102965C0102C0812C912CB6
:105300001E3651F4F6014681578160E070E0202F8F
:10531000C4010E94562773CF1336A9F401FD02C0C1
:10532000FF24F394C6010E940E2A97FD60C08114E9
:10533000910429F0F4018083C40101964C01FA9490
:10534000F110F0CF50C01B3559F49E01A4016F2D10
:10535000C6010E943428EC01892B09F044C03EC0EC
:10536000C6010E94892797FD42C01F3661F128F4CB
:10537000143639F1193651F128C0133771F0153749
:1053800001F123C08114910429F0F4016082C40169
:1053900001964C01FA94FF2071F0C6010E940E2A7A
:1053A0003C0197FD08C00E942822892B59F3B601C1
:1053B000C3010E944C2A81149104A9F0F4011082C7
:1053C00012C0006203C0006101C00064202FA4016C
:1053D0006F2DC6010E94A227811105C0F6018381AD
:1053E000807329F406C000FD0ACF539408CF5520DE
:1053F00019F0852D90E002C08FEF9FEFCDB7DEB79B
:10540000EFE00C94A923FC010590061621F0002082
:10541000D9F7C00108953197CF010895CF93DF9355
:10542000EC012B8120FF33C026FF0AC02F7B2B838A
:105430008E819F8101969F838E838A8190E029C00F
:1054400022FF0FC0E881F9818081082E000C990BA2
:10545000009719F420622B831AC03196F983E883F0
:105460000EC0EA85FB85099597FF09C02B8101963F
:1054700011F080E201C080E1822B8B8308C02E8175
:105480003F812F5F3F4F3F832E83992702C08FEFCD
:105490009FEFDF91CF910895FB01238120FF12C080
:1054A00026FD10C08F3F3FEF930761F082832F7D71
:1054B0002064238326813781215031093783268355
:1054C000992708958FEF9FEF089510E0C5EED0E083
:1054D00004C0FE010E9411252196C63ED107C9F7DE
:0454E000F894FFCF6E
:1054E40000C0DEADBEEFFEEF010000000000570675
:1054F4008000000000003909B2096A01380910016E
:10550400380D530CA701280E6D015B03A302690932
:10551400610D190D28011801140101005E0000003D
:10552400000000007108B70E0808BE083908170803
:105534002B08000000004F09B70E6A01B60E4F0990
:105544004F094F09000000004F09B70E6A01B60E5B
:10555400000000004501EB036A0144011502FB0150
:10556400D40175043802F7019F0383013C016701EC
:10557400650131015B0100000000BE07000000006E
:105584004F090A2D2D2D2D2D2D2D2D2D2D2D2D4950
:105594006E74657276616C6F7328656D20736567D0
:1055A400756E646F73292D2D2D2D2D2D2D2D2D2DE3
:1055B4002D2D2D2D2D2D2D2D0A20005665726D6556
:1055C4006C686F3A20002C20416D6172656C6F3AF3
:1055D40020002C2056657264653A20000A2D2D2D7A
:1055E4002D2D2D2D2D2D2D2D2D4C696D697465734B
:1055F4002064652056656C6F636964616465202866
:10560400656D206D2F73292D2D2D2D2D2D2D2D2DD7
:105614002D2D2D2D2D2D2D2D2D200A004D696E693A
:105624006D61203A20002C204DC3A178696D612062
:105634003A20000D0A000A2D2D2D2D2D2D2D2D2D56
:105644002D2D2D46696D2D2D2D2D2D2D2D2D2D2DF1
:105654002D2D2D2D2D2D2D2D200056656C6F63695C
:1056640064616465204465746563746164613A20AF
:105674000056656C6F636964616465206162616989
:10568400786F20646F73206C696D6974657300565C
:10569400656C6F6369646164652064656E74726FC0
:1056A40020646F73206C696D697465730056656C52
:1056B4006F636964616465206163696D6120646F0F
:1056C40073206C696D6974657300456E76696164F5
:1056D4006F2070617261207365727669646F7221E4
:1056E4000056656C6F63696461646520696E76C396
:1056F400A16C69646120652064657363617274617F
:105704006461210024444843502046616C686F75ED
:105714002120417472696275696E646F204950205A
:10572400657374C3A17469636F203A203139322ED2
:105734003136382E312E3230302000444843502048
:1057440049503A2000436F6E65637461646F2100B1
:10575400545456005454562025642C25642C256436
:105764002C25642C25640044757261C3A7C3B565F8
:1057740073206EC3A36F207265636562696461738D
:1057840021205573616E646F2076616C6F7265734E
:105794002070616472C3B5657300436F6E66696798
:1057A400757261C3A7C3B565732072656365626969
:1057B4006461732120436F6D65C3A7616E646F20BC
:1057C40070726F6772616D61210046616C6861205F
:1057D400616F207265636562657220636F6E6669CE
:1057E40067757261C3A7C3B5657321205573616E74
:1057F400646F2076616C6F7265732070616472C32C
:10580400B56573210050726F6772616D20537461C6
:1058140072742100240043444500434445205265EA
:105824007175657374207265636569766564005586
:1058340050445400555044542025642C25642C2590
:10584400642C25642C25640041637475616C697A49
:1058540061C3A7C3A36F20666569746120636F6D1C
:10586400207375636573736F210024204D6F646F1B
:10587400204F66666C696E650057495A6E65740000
:0C5884006E616E00696E66006F76660053
:00000001FF
